{"abi":[{"type":"constructor","inputs":[],"stateMutability":"nonpayable"},{"type":"function","name":"addWalletByOwner","inputs":[{"name":"keyHash","type":"bytes32","internalType":"bytes32"},{"name":"walletAddress","type":"address","internalType":"address"}],"outputs":[],"stateMutability":"nonpayable"},{"type":"function","name":"createWallet","inputs":[{"name":"vKey","type":"bytes32","internalType":"bytes32"},{"name":"keyHash","type":"bytes32","internalType":"bytes32"},{"name":"verifier","type":"address","internalType":"address"},{"name":"ownerCommitment","type":"bytes32","internalType":"bytes32"}],"outputs":[{"name":"","type":"address","internalType":"address"}],"stateMutability":"nonpayable"},{"type":"function","name":"getWallets","inputs":[{"name":"keyHash","type":"bytes32","internalType":"bytes32"}],"outputs":[{"name":"","type":"address[]","internalType":"address[]"}],"stateMutability":"view"},{"type":"function","name":"owner","inputs":[],"outputs":[{"name":"","type":"address","internalType":"address"}],"stateMutability":"view"},{"type":"function","name":"transferOwnership","inputs":[{"name":"newOwner","type":"address","internalType":"address"}],"outputs":[],"stateMutability":"nonpayable"},{"type":"function","name":"walletAt","inputs":[{"name":"keyHash","type":"bytes32","internalType":"bytes32"},{"name":"idx","type":"uint256","internalType":"uint256"}],"outputs":[{"name":"","type":"address","internalType":"address"}],"stateMutability":"view"},{"type":"function","name":"walletsByHash","inputs":[{"name":"","type":"bytes32","internalType":"bytes32"},{"name":"","type":"uint256","internalType":"uint256"}],"outputs":[{"name":"","type":"address","internalType":"address"}],"stateMutability":"view"},{"type":"function","name":"walletsCount","inputs":[{"name":"keyHash","type":"bytes32","internalType":"bytes32"}],"outputs":[{"name":"","type":"uint256","internalType":"uint256"}],"stateMutability":"view"},{"type":"event","name":"OwnershipTransferred","inputs":[{"name":"previousOwner","type":"address","indexed":true,"internalType":"address"},{"name":"newOwner","type":"address","indexed":true,"internalType":"address"}],"anonymous":false},{"type":"event","name":"WalletAdded","inputs":[{"name":"keyHash","type":"bytes32","indexed":true,"internalType":"bytes32"},{"name":"wallet","type":"address","indexed":true,"internalType":"address"},{"name":"adder","type":"address","indexed":true,"internalType":"address"}],"anonymous":false},{"type":"event","name":"WalletCreated","inputs":[{"name":"keyHash","type":"bytes32","indexed":true,"internalType":"bytes32"},{"name":"wallet","type":"address","indexed":true,"internalType":"address"},{"name":"creator","type":"address","indexed":true,"internalType":"address"}],"anonymous":false}],"bytecode":{"object":"0x50564d00003458000000000000010700c15001c00080038118145916539c07e08b84f2a4d01fcd4413afdaa322977f4919e057646b6f18b4e305e7123342571e08038e1133dc58cbfac56a09d155477e84f359e7154901db79cd0e7c41f24b72318f6aed477841f6d0c389c0cccd001819708ca2afadf2ebb6614674656c6c615763203a79726f746373692072656c6c6165687420746f6e20000072656e776f20614674656c6c61576e203a79726f746372656e776f2077652065687420736920646461206f72657a145916539c07e08b84f2a4d01fcd4413afdaa322977f4919e057646b6f18b4e3614674656c6c615777203a79726f746364612074656c6c61616320737365726420656220746f6e6ed65dfff84ab04904f81e609d61e5960e90c19852218e6410dfc50f674a41ebc30480f40e000000000e0000001c0000002a000000300000003d00000048000000570000006200000072000000820000008d0000009f000000aa00000063616c6c5f646174615f636f707963616c6c5f646174615f6c6f616463616c6c5f646174615f73697a6563616c6c65726465706f7369745f6576656e746765745f73746f72616765686173685f6b656363616b5f323536696e7374616e746961746572657475726e5f646174615f636f707972657475726e5f646174615f73697a657365616c5f72657475726e7365745f696d6d757461626c655f646174617365745f73746f7261676576616c75655f7472616e73666572726564051302c0b1400463616c6cc0b940066465706c6f7906c0f255819602c08e492b007301b60254035c032d04350434053905650514061f0648065106640670069606aa06f906fe0603070d07170721075007550788078d0795079a079c07cc07f507fa07fc071a082d089908b008b509ba09c309c809cf09d409d609130a360a6b0a730a860a880a8d0aa30acb0ad00ad50af00af20a180b4d0b550b680bd20b3a0cb50c110d280d3d0d7e0d840d9e0d0d0e780e930eaa0ee80e120f140f520fcd0f15105c107110a6102a11461148114f11721178113612601266126c1272127b12b812c212d512db1216133a1340134813bd13d913db13e21305141014161421144b14511457145d146614a314ad14c014c614cd14f014f614b615e015e615ec15f215fb15381642164f168e169416bc16c216151724174e1754175a1760176917a617b017c317c917d217d817de17e1172d18611863189a18f418a519d319de19d51a2a1b5f1b661b891b941b9a1ba51bcf1bd51bdb1be11bea1b271c311c3e1c811c871cd21cee1cb61d181e401e631e8a1eac1e2b1faf1f6720912097209d20a320ac20e920f32006210c2147216c2172217a218021d121f621022213221d2223223022f122f7220223082310238a232524312442244b2451245e24762485248f2495249f24bc24be24eb24f1242825b725eb25ee25f4250d260f2645269f26e62670279e27a92749284f2866288a284d296929a829192a8d2aba2ac42aca2ad02aed2aef2a212b302b3c2b7d2b892bcb2bfb2b082c5c2c892c9d2ca32ca52cc22ce22c1c2d5a2d722d842dc02d302e332f612fda2f35307c3049316a31f5319432e033553447359135be35d4358236ba36c536cb36f936ff361f37253728372e3739373f37a437aa37b037033809380c38153825382b3834383a3840384638783887389538d738dd38fe3814392e39ab39c139ef39f5391f3a253a283a2e3a343a3f3a453aa93aaf3ab53ac03ac63ac93ad23ae23ae83af13af73afd3a033b353b443b583b5e3b603b843baa3bc03b2d3c613c783c7e3ca23cb83cd73c153d2b3d593d5f3d893d8f3d923d983d9e3da93daf3d133e193e1f3e2a3e303e333e3c3e4c3e523e5b3e613e673e6d3e9f3eae3ebc3e2e3f703fba3fe63ffc3f9a40b940c240c84005410b41390820010251085606330750010383770a0b2849069511f07b10087b15648964753308206497501002bf047c78017c797c7a027c7b03978808d4980897aa1097bb18d4ba0ad4a8087c79057c7a047c7b067c7c07979908d4a90997bb1097cc18d4cb0bd4b909979920d489027c79097c7a087c7b0a7c7c0b979908d4a90997bb1097cc18d4cb0bd4b9097c7a0d7c7b0c7c7c0e7c780f97aa08d4ba0a97cc10978818d4c808d4a808978820d498037c78117c7a107c7b127c7c13978808d4a80897bb1097cc18d4cb0bd4b8087c7a157c7b147c7c167c791797aa08d4ba0a97cc10979918d4c909d4a909979920d4890a7c78197c79187c7b1a7c7c1b978808d4980897bb1097cc18d4cb0bd4b8087c791d7c7b1c7c7c1e7c771f979908d4b90997cc10977718d4c707d49707977720d487076f776fa86f396f2a7b5a187b59107b58087b57821008821595111032009511d87b10207b15187b161082897b19088289087b1982851082861833082050100477036f686f59821a6faa821b086fbb787b18787a10787908787898bc38787c1f98bc30787c1e98bc28787c1d98bc20787c1c98bc18787c1b98bc10787c1a98bb08787b1998ab38787b1798ab30787b1698ab28787b1598ab20787b1498ab18787b1398ab10787b1298aa08787a11989a38787a0f989a30787a0e989a28787a0d989a20787a0c989a18787a0b989a10787a0a98990878790998893878790798893078790698892878790598892078790498891878790398891078790298880878780182102082151882161095112832009511a07b10587b15507b16489515608411e06476828718828910828a0882886f776f996faa6f887b18187b1a107b19087b17491138491130491128491120481140208318831a20831b403309ff33070a05821738821830821928821a206f776f886f996faa7b6a187b69107b68087b67501206e33e32009511a07b10587b15509515608411e08272827a08827b108277188283828908828c108288186f746fbb6faa6f276f826fcc6f996f387b17187b1a107b1b087b147b18387b19307b1c287b12208318831a203309ff330b2033070a0c9551a08210588215509511603200951120ff7b10d8007b15d0007b16c8009515e0008411e082bc7b1c4082bc087b1c4882bc107b1c5082bb187b1b5850120881437b183850100a8e016f687b187882186f887b18708218086f887b18688218106f887b18608218186f887b1898008218206f887b1890008218286f887b1888008218306f887b1880008218406f887b18b8008218486f887b18b0008218506f887b18a8008218586f887b18a0008379811a388317603308030a04955120ff8210d8008215d0008216c8009511e00032009511e0fe7b1018017b1510017b160801951520018411e082c67b166082c6087b166882c6107b167082cc187b1c7882bc7b1c3882bc087b1c4082bc107b1c4882bb187b1b5050120ca8427b185850100eb5006f687b18980082186f887b1890008218086f887b1888008218106f887b1880008218186f887b18b8008218206f887b18b0008218286f887b18a8008218306f887b18a0008218386f887b18d8008218406f887b18d0008218486f887b18c8008218506f887b18c0008218606f887b18f8008218686f887b18f0008218706f887b18e8008218786f887b18e0008379811a58831780003308040a049551e0fe8210180182151001821608019511200132008b7910520931c8780883881f8488e056380000012533091c0102390a1c0102ae8a093d081c01020133083001028377c887073200009511f07b10087b158475010a02013d07180102510507501010095010123c019511807b10787b15707b1668951580008411e04911384911304911208000330740951820491128501014effb4911584911504911484911408317400a0d01821750821858821948821a40d49808d4a707d487075207b700330016951110ff7b10e8007b15e0007b16d8009515f0008411f0330630010383677b17080a033a0738010339084001033a093001036f77977a206f88988820d48a0a9877206f98978920d497079888204921a8004921c8004921c0004921b8003309017b19b0007b18a0007b1798009517b000951890007b1a900033004633023e281843641733001833023828e0408217188218108219088216d49707d48609d47909989920d48707977720d497075107090050101a1b1e6467330850101c99fe8377330833090a28a8f96467330850101e86fe8378330733093300200a0a019511a07b10587b15509515608411e0491118491110490180003307406418491108501022befa39071801025317045e83172033083300240a010181173c51475bcba58da800330862336ecaaa875c5147027611e4920051478be3fdf25b51470eaea3fd31330817f89c1caa87333308ad643022aa8720330853176126ab870d3300263302f400281341501028651d50102a121c33002c3302d80028b84033002e3302b00028f5403300303302480128a440330032951120ff7b10d8007b15d0009515e0008411e04921b8004921b0004921a8004921a0008317a0000a0d28351a501034db173300369511a0fe7b1058017b1550017b164801951560018411e049213801492130014921280149212001831720010a0d283f0f501238743f33084050103a85f850123c293c320082897b19188289087b1910808610827818827910827a0882777b18587b19507b1a487b17409517209518405010407afa801734977720821838d467078219107b19688219187b19607b18787b1770951740951860501042c8fa5012447c3e32008217080a038067107b17088267087b17826695177033004833023828e53e8218880082198000821a7882177050124a1a3c5208820082186f89979820821a086faa98aa20d48a026f6a97ab20989920d4b90998aa204911284911484911404911384911303a0b0000023a0c0800023a061000023a081800027b1b687b1c607b16587b18507b1a207b1918951950951a30951b107b1210330850104c8dfa955110ff8210e8008215e0008216d8009511f0003200005209449511c07b10387b15307b16289515408411e06476838883170a01821718821810821908821a7b67187b68107b69087b6a9551c08210388215308216289511403200009511e0fe7b1018017b1510017b160801951520018411f0828310828208829a08828c829b7b1b20829410d32a067b1638d82a06d8cb00821b38dab006828b188298187b1838c93409c969087b1828d869087b1330d8340664b4821938c9b909c96909c98909c92a08c908087b1c38821a20c9ca0a8e8b88aa4085aa01db8b0a8f98821c288ecbdb980bd49c08db8b0a510a4664768217387b17c0007b127b12c8008217307b17d0009517e0009518c0007b14087b14d80033005033024e28ec3b501252f03833005433024e28de3b5012563f3b3200501058941a50125aad3732006416828a7b6a30828a087b6a28828a107b6a208288187b6818829a829808829b108299187b67387b69787b6b707b68689568607b6a60330750105e41f78267187b67588267207b67508267287b67483307209568408269307b69405010601ef739081c010256183f0b20031c010240019517e08479e07b693064913307300102837783993308403300620a06826a3033026428123e826a305012640c3e826b387bba187bb9107bb8087bb7501266f03b320050106ac7f6491118491110490132330704641849110850106cb1f639081c010256183f0b20031c010240013308300102838833070133092433006e0a0a330270282c3b501270293b50107271f78217108218188219821a087b67107b68187b697b6a08501274a936320064168289828a08828b108288187b67187b68387b6b307b6a289568207b692033075010783cf639081c010256181f0b20031c010220019517e08479e07b6910649133073001028377839933082033007a0a06826a1033027c28303d826a1050127c2a3d826b187bba187bb9107bb8087bb750127e31363200951120ff7b10d8007b15d0007b16c8009515e0008411f0829a7b1a28829a087b1a20829a107b1a308299187b19388289828a08828b1082881864767b18187b1898007b1b7b1b90007b1a087b1a88009517a000951880007b19107b1980003300800033027028253a8217b8008212a0008219b000821aa800821838d3870bd87808821730d8970cdbb80c821820d38a03d8a80a821828d82808db3a08d39707d4b707db7c0851089c008217107b17408217087b174882177b17509517609518408219187b19583300820033027628a03c821768821860821278821a70821b20c87b0b821328c88303d88308c88b0bd37b09d87b07da9807821830c8a808c88707d88709821c38c8c202d8a808c82808c8980833094916304916384916204916287b637b6b087b67107b6818955120ff8210d8008215d0008216c8009511e0003200330084003302682874399511887b10707b15687b16607b174082977b17508297087b17588297107b174882921882861882891082858288088e6a8e9bdb6a0b8e8a885c000185cc01db8a0cd46909db9b0c7b1c388359807b1564267b1218642850208600373c7b17307b182083597b192882175082185850208800203c7b17107b18088d598000821748646850208a00313c33028c00821508d485058219889a80007b1a08821820daa805821858da9805821610d47606821730daa706821750da970682174882181882192833008e0028c73b50208e00c43b33029000821908939893978219389496949594979498821940017b98187b97107b95087b968210708215688216609511783200951140ff7b10b8007b15b0007b16a8009515c0008411e07b17308297187b17408297107b172882960882977b1738828718828910828a0882887b1798007b1990007b1a88007b18800095176095188000502092003af48217607b17508217687b17588212708218787b1848821c3898c73d976903d4970798663d821a2897a903d4960698a93d821a4097aa03d4a90997cc037b1c408e7a88cb000185bb01db7a0b8e978e6adb970ad46909db9a0b7b1b2883c98064267b1210642750209400d03a7b17187b18208217388a79037b193882175082185850209600b53a7b177b18088218408d898000646782184850209800c43a821ad47a0a821940889b80007b1b821718dab70a821750da970a7b1a50821608d48606821720dab706821758da970682171082184882193850209a00603a821893879777209877208218289486821950948994878218304918187b87107b897b860850229c00b43632008217b8018218b0018219a801821aa0017b17307b1738017b18207b1830017b19187b19280195174001951820017b1a087b1a20013300a00033027028a5368213108212821758018218400182145001821a4801d3270bd87207821928d8490cdbb70cd36a07d8a60ad88308db7a08d39407d4b707db7c085108be007b13a0008217087b17c0007b16a8008217187b17c8007b19b0008217207b17d0007b12b8009517e0009518c0009519a000821a307b1ad8005020a200a3fb8212e0008217e8008218f0008219f800821b0001821c080182161001821a18017b1a587b16507b1c487b1b407b19787b18707b1768951780009518609519407b12605020a400a8fd821790008218980082198000821a8800821b387bb7107bb8187bb97bba08955120fe8210d8018215d0018216c8019511e00132003308300102838833070133093300a6000a0a01808910828a0882884917187b79107b7a087b7832005208439511d07b10287b15209515308411f0827810827a088277978820988b204911187b177b1a0864187b1b1064975020aa00aff09551d08210288215209511303200009511807b10787b15707b1668951580008411f07b171082878292828b08829308957a207b1a18d87a06c86b0a7b1a08d8ba0cda660c828a10828818829410829918c8ca06d8a60cc88c0c7b1c7b18387b1a307b1b287b17207b19587b14507b13489517409518207b12403300ac003302a800280f378218108217087b87088217187b877b861082177b87185022ae00223232003300b2000a0d018217b0018218b8018219a801821aa001d49808d4a707d4870752074a015022b400d7355020b60083f782126001821768018218700182197801821b8001821c880182169001821a98017b1ad8007b16d0007b1cc8007b1bc0007b19f8007b18f0007b17e800951700019518e0009519c0007b12e0003300b800951120fe7b10d8017b15d0017b16c8019515e0018411f0829a7b1a10829608829a107b1a288299187b198289828a08828b108288187b17387b1878017b1b70017b1a68017b1960014921980149219001492188019517a00195188001951960014921800133009e0033025c28f636821700017b1738821708017b1730821710017b1728821718017b17209517a0003300ba00330238289f345022bc00ad2e5020be004ffe5022c000a62f52073f5022c200e12ec9c602d8c606d84a0a821c38c99c0cc9ac0cc96c0cc9b707c98707c90306d4c707d42608d47808d42707988820977720d4870751070a005020c400ac11640764685020c60029f28378836933073300c8000a0a3302ca0028d5335022ca00d233829210d3360a7b1a28d8360ad8cb0c821028da0c0a64308288187b18208298187b1818c94209c9a9087b1828d8a9087b1408d8420a5022cc001a30510a2c64767b13507b10588217087b17609517709518507b14683300ce0033024e2867325022d000da3332005020d2001c119511807b10787b15707b1668951580008411f07b171082878292828b08829308957a207b1a18d87a06c86b0a7b1a08d8ba0cda660c828a10828818829410829918c8ca06d8a60cc88c0c7b1c7b18387b1a307b1b287b17207b19587b14507b13489517409518207b12403300d40033020802287c348218108217087b87088217187b877b861082177b87185022d6008f2f32003300da000a0d01821770018218780182196801821a6001d49808d4a707d487075207a2005022dc0078333300de003302ca00289a325022e0009d343300e2003302c2012868308217e0007b17388217e8007b17308217f0007b17288217f8007b17209517a0003300e40033023828b4325022e600c22c5020e800f7fe5022ea00bb2d52073f5022ec00f62cc9c602d8c606d84a0a821c38c99c0cc9ac0cc96c0cc9b707c98707c90306d4c707d42608d47808d42707988820977720d4870751070a005020ee00c10f640764685020f0003ef08378836933073300f2000a0a3302f400284c335022f40049333300f6000a0d018217b0018218b8018219a801821aa001d49808d4a707d4870752074c015022f80059325020fa0005f482126001821768018218700182197801821b8001821c880182169001821a98017b1ad8007b16d0007b1cc8007b1bc0007b19f8007b18f0007b17e800951700019518e0009519c0007b12e0003300fc00951180fe7b1078017b1570017b166801951580018411f0829a7b1a18829a087b1a10829a107b1a088299187b198289828a08828b1082881864767b1818017b1b10017b1a08017b190001492138014921300149212801951740019518200195190001492120013300cc0133025c287633821700017b1738821708017b1730821710017b1728821718017b17209517a0003300fe00330238281f31502200012d2b50200201cffa50220401262c52073f50220601612bc9c602d8c606d84a0a821c38c99c0cc9ac0cc96c0cc9b707c98707c90306d4c707d42608d47808d42707988820977720d4870751070a00502008012c0e6407646850200a01a9ee83788369330733000c010a0a01827218828318827b10827c088289088274828a828810d3c907d8c909d84a0adb790ac9b807d8a707d8b808c92309c98909c97909570905320050200e01d60d502210015f2e647649111849111049110849014911384911304911200195174095182064194911285020120101f750221401e92a3200821730018218380182192801821a2001d49808d4a707d487075207c30038071801024921f8004921f0004921e8007b17e00049211801492110014921000104951700019518e000492108015020160140ff9517c000330018013302100128cc2d8217c0007b17388217c8007b17308217d0007b17288217d8007b17209517a00033001a0133023828b12f50221c01bf2950201e0161f950222001b82a52073f50222201f329c9c602d8c606d84a0a821c38c99c0cc9ac0cc96c0cc9b707c98707c90306d4c707d42608d47808d42707988820977720d4870751070a0050202401be0c64076468502026013bed837883693307330028010a0a33022a0128de2d50222a01db2d52091750222c01302f50202e0143e850223001e62b3200008282828308828410828818829c7b1c829b087b1b08829a107b1a108299187b191864767b19387b1a307b1b287b1c207b18587b14507b13489517409518207b1240330034013302a800280c308218958720d88708821a08c88a09d8a90ada880a821810c88a0ad88a08821b18c8b8087b69087b677b6a107b681850223601072b3200828a088286108288187b177b18707b1878017b1670017b1a607b1a680195178001951860017b19687b19600133003a0133022a0128072d821798018218900182198801821a80017b17207b1718017b18187b1810017b19107b1908017b1a087b1a00018217487b1738018217507b1730018217587b172801951740019518200195190001821a787b1a200150203c01670c646c821758017b17788213500182144801821040013309330a33023306018217087b1958d87907821910d39a087b1a50d89a09da8709821b18d8b207821a20d3a608d8a60ada870ad3b207d48707da790a510ad7007b12287b16307b10387b14407b1348821768957820d87807821960c8790ad89a06da7706c8c606d8c607821970c87909d468077b19707b1a60d4a909d49707987720d46909979920d497075207ae009517e0007b186850203e0176e6821ae0008217e8008218f0008219f800821b787b1b9800821b487b1b9000821b407b1b8800821b38502240018b2e330042013302320128122b8217d8007b17788213d0008214c8008210c000821958959901889701821a50c87a0ad4a907887701821828c87802d88208821b30c88b0b646c64b628f9fe82177b707b74087b73108218787b7818955140fe8210b8018215b0018216a8019511c001320000951120ff7b10d8007b15d0007b16c8009515e0008411f0828b10828218828608828cd42608d4bc0ad48a0a98aa20d4b808978820d4a8087b17385208e1008297187b17188297107b17208297087b172882977b173095c7207b1708d8c707c876087b18d86806da7706c8b606d8b607c827077b17104921b8004921b0004921a000209518a0004921a80064c75020440180e682177b17488217087b17408217187b17788217207b17708217287b17688217307b17607b165095178000951860951940821a107b1a5833004601951140fe7b10b8017b15b0017b16a8019515c0013302380128682d821790008218980082198000821a8800821b387bb7107bb8187bb97bba08955120ff8210d8008215d0008216c8009511e00032000033004a010a0d01821770018218780182196801821a6001d49808d4a707d487075207a20050224c01f42b33004e013302ca0028162b50225001192d330052013302fe0128e4288217e0007b17388217e8007b17308217f0007b17288217f8007b17209517a0003300540133023828302b502256013e25502058016efe50225a01372652073f50225c017225c9c602d8c606d84a0a821c38c99c0cc9ac0cc96c0cc9b707c98707c90306d4c707d42608d47808d42707988820977720d4870751070a0050205e013d086407646850206001bae8837883693307330062010a0a0182781082771814090000000001000000d38909d479099888208888019478939851080532009511f87b10330830010283883307013309330064010a0a33026601282029502266011d295209699511807b10787b15707b1668951580008411e0647683888317400a018218407b188217487b17188219507b1910821a587b1a087b1a387b19307b17289517207b18205020680172ff8217087b67188217107b67108217187b670882177b6750226a017a263200009511e0fd951a00027ba0187ba5107ba608951520028411f0828310828208829a08828c829b7b1b50829410d32a067b1668d82a06d8cb00821b68dab006828b188298187b1848c93409c969087b1858d869087b1370d8340664b4821948c9b909c96909c98909c92a08c908087b1c78821a50c9ca0a8e8b88aa800085aa01db8b0a8f98821c588ecbdb980bd49c08db8b0a510aa30164768217787b17c0017b12607b12c8018217707b17d0019517e0019518c0017b14687b14d80133006c0133024e28eb278217e8017b17588217e0017b17508217f8017b17488217f0017b1740821878958720d88708821a60c88a09d8a90ada880a821870c88a0ad88a08821b68c88b0b7b1a70017b1968017b17600195178001951860017b1b780133006e0133024e288927821788017b1738821780017b1730821798017b1728821790017b1720821778957a40502270014d287b1718017b1910017b18080195172001951800017b1a00013300720133026601283e27821728017b1718821720017b1710821738017b1708821730017b17821778957a605022740103287b17b8007b19b0007b18a8009517c0009518a0007b1aa0003300760133024e28f5268217d0008218d8008219c000821ac8007b67707b68787b69607b6a6882177b67508217087b67588217107b67408217187b67488217207b67308217287b67388217307b67208217387b67288217407b67108217487b67188217507b678217587b67089551e0fd951700028270188275108276089511200232005020780139059511a0fd951700027b70587b75507b7648951560028411e095170002491738491730491728491720831720020a0d01951b000282b73082b83882b92882ba20d49808d4a707d487075207700138071801024921780149217001492168017b176001492198014921900149218001049517a00195188001951960014921880150207a0148fd8217a0017b17388217a8017b17308217b0017b17288217b8017b17208217c0017b17188210c8018216d0018214d8018213e0018212e801821cf001821bf801821a00028219080282181002821718027b17d8007b18d0007b19c8007b1ac0007b1bf8007b1cf0007b12e8007b13e0007b1418017b1610017b1008018217187b1700018217207b1738018217287b1730018217307b172801951740019518200195190001951ae000951bc000821c387b1c200150207c010911821740017b1738821748017b1730821750017b1728821758017b17209517a00033007e01330238286e26502280017c20502082011ef050228401752152073f50228601b020c9c602d8c606d84a0a821c38c99c0cc9ac0cc96c0cc9b707c98707c90306d4c707d42608d47808d42707988820977720d4870751070a00502088017b036407646850208a01f8e383788369330733008c010a0a33028e0128a42550228e01a125829210d3360a7b1a28d8360ad8cb0c821028da0c0a64308288187b18208298187b1818c94209c9a9087b1828d8a9087b1408d8420a50229001e921510a2d64767b13507b10588217087b17609517709518507b1468330092013302660128352450229401a825320050209601ea0250229801022032008217b0008218b8008219a800821aa000d49808d4a707d4870752077c38071801024911584911504911487b1740491178491170491160049517800095186095194049116833009a0133028e0128d924821880008217880082199000821a98007b1a387b19307b17289517207b182050209c01a516641733009e0133023828fd24821818821910821a0882175022a001352251080a005020a20147025020a401c8e28378330733093300a6010a0a019511e0fe7b1018017b1510017b160801951520018411f0828310828208829a08828c829b7b1b20829410d32a067b1638d82a06d8cb00821b38dab006828b188298187b1838c93409c969087b1828d869087b1330d8340664b4821938c9b909c96909c98909c92a08c908087b1c38821a20c9ca0a8e8b88aa4085aa01db8b0a8f98821c288ecbdb980bd49c08db8b0a510a4b64768217387b17c0007b127b12c8008217307b17d0009517e0009518c0007b14087b14d8003300a80133024e28b0225022aa01b41f3300ac0133026601289f225022ae01002232005020b00154019511e0fe7b1018017b151001951520018411e04921f8004921f0004921e8004921e0008317e0000a0d018217f0008218f8008219e800821ae000d49808d4a707d487075207f30038071801024911784911704911687b1760492198004921900049218000049517a00095188000951960492188005020b201acfe8212a0008213a8008218b000821ab800821bc000821cc8008219d0008217d8007b17387b19307b1c287b1b207b1a587b18507b13489517409518207b12403300b4019511f0fe7b1008017b1500017b16f800951510018411f082797b19488279087b19408279107b19388277187b173082877b17288287087b17208287107b17188287187b1710330630010383673300d8020a033302da0228292164173300b60133023828ce22821818821910821a0882175022b8010620510809005020ba01185020bc019ae08378330733093300be010a0a019511f87b103308300102838833070133093300c0010a0a013308491718491710491708490732003300c40133025c289d245022c60178243300c801330270285821821730821838821920821a287b67107b68187b697b6a085022ca010a213200821a4001821748018218500182195801821b7b1b9800821b087b1b9000821b107b1b8800821b185022ce0173235020d0017fe6821ac0008217c8008218d0008219d8004911384911304911284911207b19587b18507b17489517609518409519207b1a405020d20195e8821770821878821960821a687b67107b68187b697b6a08955180fe8210780182157001821668019511800132009511a07b10587b15507b16489515608411f0828b10828a18828c0882867b1a107b1c08d4ac08d4b60ad48a0a98aa207b1b18d4b808978820d4a8087b1752085b829718829810829a0882997b19207b1a287b18309518207b173864675020d4019edb956720d86708821a08c88a09d8a90ada880a821818c88a0ad88a08821b10c8b808821b7bba107bb9087bb77bb8185022d601af1b3200005020da0153dc80171082188219087b67104916187b687b69085022dc018d1b32007b1970828a087b1a68828b107b1b608286187b177b16d8017b1bd0017b1ac8019517e0019518c0017b19c0013300e00133027028b21f8217f8018218f0018219e801821ae0017b17207b1778017b18187b1870017b19107b1968017b1a087b1a60018217487b1798018217507b1790018217587b1788019517a0019518800195196001821a787b1a80015020e201bcfe8217b8017b17588217b0017b17508217a8017b17488217a0017b17407b1638018217607b1730018217687b17280195174001951820018219707b1920013300e40133027628f421821758017b1768821750017b17608214480182104001330c330649117049117801821708d87c07821910d39608d89609da8709821b18821770d8b702821a20821878d3a803d8a80ada320ad3b707d43707da790a510adf007b10e0007b14e8008217607b17f000951700019518e000821a687b1af8007b14387b10307b1c283300e6013302d80128871e821a0001821708018218100182191801821b587b1b9800821b507b1b9000821b487b1b8800821b405022e801c0203300ea013302320128471d821c288210308214388217d8007b17588217d0007b17508217c8007b17488217c0007b1740950001880701c87404d44007887701821860c88707d88708821968c889097b196895cc0188c801c88606d46c08888801821970c89808d89809821a78c89a0a7b1a787b17607b187028f1fe82178218407b788218487b78088218507b78108218587b78189551e0fd951700028270188275108276089511200232005020ee0106d949111849111049014133070464184911085020f001efd839081c010256183f0b20031c01024001330830010283883307013309243300f2010a0a019511b07b10487b15407b16389515508411f064728289827408828c088273959a1fd89a00c80c0984aae07b1308c8a303d8a30bc8490ac8ba0ad39a06d89a07da6b07822b18d8c90c828610822210828818da000cc86c0cd86c06c82c09c89707d8c90cd89709c8b808c86808c8c808c8980c8ec88e79dbc809d4c7088ea6db8906520653821808d88308d34a09d84a06da9806d82708d3bc09d8bc0bda980bd32708d49808da860b520b2c7b13107b1a187b17203307409518107b1c285020f40108d89551b082104882154082163895115032003300f6013302ec0128c01c9511d0fe7b1028017b1520017b161801951530018411f082897b19288289087b19208289107b19188288187b18107b17389517f0003300f80133023828571d8217f0007b17408216f800821900017b1948821808017b18307b18a8007b19a0007b1698007b1790008217107b17c8008217187b17c0008217207b17b8009517d0009518b00095199000821a287b1ab0003300fa019511e0fd951a00027ba0187ba5107ba608951520023302de0128791e8217d8008218e8007b18288213d000821ae000d3670bd8670c6460821440d84302dab20c821848c98a0bd88a0a821630821928c96909c9a909d8cb0ac9a909c9cb0b7b1008c90707c92707c9430c7b1c507b1688007b1880007b10787b14707b17587b1b609517709518507b19685020fc0103fe8217387b76188218487b78108218087b78088218407b789551d0fe8210280182152001821618019511300132003300000233025c28681e50220202431e502004029ffe821730821838821920821a287b67107b68187b697b6a0850220602d91a32005208409511d07b10287b15209515308411f0827a18827810827b0882777b177b1b087b181064187b1a18649750200a0234d69551d082102882152095113032000082187095872050220e02b91cc88b0b7b19c8007b17c00082177b17f8008217087b17f0008217107b17e8008217187b17e0007b1ad0009517e0009518c0007b1bd800330010023302a80028bc1c821870958740502212026c1cc8b8087b1898007b1a90007b1988007b1780008217307b17b8008217387b17b0008217407b17a8009517a000951880008219487b19a0003300140233020802286e1c8217608218207b78188218287b78108218507b78088218587b789551a0fe8210580182155001821648019511600132009517203300180233023828f71a8217387b17188217307b17108217287b17088216200a0901821818821908d498087b1618821a10d4a609d48909989920d4a808978820d4980852083c647698772052073483677b1710821718646850201a028fd87a1640837783184033090a0801811740821810ac870e0a0901647698772051070400821718646850201c0262d88378836933070133001e020a0a3302200228e21450222002df1432007b17307b1898008215708d5980007b19383307ff3308ff50202402861c7b172882179800d487077b1798008359807b19183307ff3308ff502026028c1c645988558000821a9800db5a0893987b189800821830821a28d4a808da57088217a000da97087b18a0003307ff3308ff8219a80050202802521c7b15689358647993597b16208217a00094677b17a0008217980094677b17980094697b193094687b1828821580006457821678646882191850202a02141c7b17187b181082179000821888008219a80050202c02fc1b7b17087b186457646882193850202e02c41b8215d48505821a68821810daa80582188800821970da9805821608d47606821718daa70682179000da9706821780008218788219a80050203002ae1b821968939893978219209496949594979498821940821a28e0a902d2a808821a48821930e09a0ad29707821b50821c9800e0cb0bd25c0c8215588219a000e09505d29606d46505d4cb0bd4a707d482088219607b98087b977b9b187b95108210c0008215b8008216b0009511c8003200821bc0008217c8008218d0008219d8004911587b1650821a107b1a48821a187b1a40821a207b1a78821a287b1a70821a307b1a68821a387b1a607b1998007b1890007b1788009517a00095188000951960951a407b1b800033003402951138ff7b10c0007b15b8007b16b0007b176082938295088287107b175882921098373d975c03d4c707973b037b1b708e7c88bb000185b601db7c068287187b175082971898553d972903d45909828b7b1b488288087b184098283d977703d4870782a8107b18900082a8187b18880082a87b18800082a8087b18788e788e9adb780ad49707db7a068a39037b19a8001407ffffffff000000007b17a00033083300220228381a8217b8008218b0008219a800821aa0007b1718017b1810017b1908017b1a00019517e00095180001502036025dd39551c0fe821038018215300182162801951140013200951140fe7b10b8017b15b0017b16a8019515c0018411e08289187b19408289107b19488289087b195082887b1858827a1882791082780882777b1a207b1a78017b19287b1970017b18307b1868017b17387b1760019517400195186001502038026dd2821b58018216500182194801d4b607889801947851087101821740017b1718957701887801c898087b1910d48709889901c86909d8690ac8ba0a7b1780017b1888017b1990017b1a980195176001951880017b1b0850203a0289d28217087b17d8007b16d0008217107b17c8008217187b17c0008217207b17f8008217287b17f0008217307b17e800951700019518e0009519c000821a387b1ae00050203c02f4da82120001821308018218100182191801821b2001821c280182163001821a38018217407b17788217487b17708217507b17688217587b17607b1a98007b1690007b1c88007b1b80007b19b8007b18b0007b13a8009517a000951880009519607b12a00033003e029511c0fe7b1038017b1530017b162801951540018411e0828a7b1a38828a087b1a30828a107b1a288288187b182082987b18188298087b1810809610827818827910827a0882777b18f8007b19f0007b1ae8007b17e0009517c0009518e0003300320228fbd0955140fe8210b8018215b0018216a8019511c0013200330040023302ec0128bf149511a0fc951c00037bc0587bc5507bc648951560038411e082bc187b1c5882bc107b1c6082bc087b1c6882bb7b1b7082ab187b1b7882ab107b1b800082ab087b1b880082aa7b1ab000829a187b1aa800829a107b1aa000829a087b1a980082997b1990008289187b19388289107b19408289087b194882887b18507b179517c00233004202330238280a1595170002827bd8008276d0008279c000827ac800d4b6078898e094a8947851089c04d46907d4ba08d48707987720d46808978820d48707520782049597207b1730d89707c87a087b1820d8a808da7708c868087b1810d86807c8b7077b17083a07200002951c00027bc7b8003a072800023a083000027b19b8003a093800027bc7b0007bc8a8009518a0027bc9a0008217b8007b1a187b1b2850204402c1ce8217587b1718028217607b1710028217687b1708028217707b1700028217787b173802821780007b173002821788007b1728028217b0007b1720028217387b1758028217407b1750028217487b1748028217507b1740028217087b1778028217107b1770028217207b176802951780029518600295194002951a2002951b0002821c307b1c6002330046029511a0fe7b1058017b1550017b164801951560018411f08286828c087b17609567607b1758d8670264607b1670c82c077b1750d8c70364c47b1c68da220382b77b174882b7087b174082b7107b173882b7187b173082a77b171882a7087b171082a7107b170882a7187b17828a188286108292829708829810829918c8360c7b1c28d86c0b7b1a78c8ab0b7b1b207b1a18017b1610017b1408017b1000017b1938017b1830017b17280195172001951800017b12200133000c023302080228591495180002828788008282980082898000828a9000821818d3870bd8870c64838218b800d88908dab80cc96a0bd86a0a821628c96206c9a606d8cb0ac9a606c9cb0bc93707c987088217b800c979098217b800d48606d4b908d46808d46b0b98882097bb20d4b80852086702649864965020480296d0951800024928f8004928f0004928e8004928e000951900034919184919104919084909491938ff491930ff491928ff491920ff9519e002979920989920951a200397aa20d4a909977720987720976a20d47a0a951700039777201408ffffffff00000000d4870c3307ff3308ff330bff0a0701801710038218000382190803d4780ad49a0a821ca800510adc016f99989a206f88978b20d4ba0a7b1ab8009799206f77987720d497077b17b000988620821790007b17a0014921d8014921d0014921c8014921c001821798007b17a8018217a0007b17b0019517e0019518c0019519a0017b1cb80133004a0233025c28e5138219e0018217e8018218f001821af801492178017b1688007b167001821bb8007b1b6801821bb0007b1b60017b1a98017b1890017b17880195178001951860017b19800150204c02ecf9330630010383670a0338074001037b1780003a073801037b17783a063001039517400133004e023302382841118218580182195001821a48018217400150225002740e5208da008218786f89979820821a80006faa98aa20d48a026f6a97ab20989920d4b90998aa204921d8004921f8008218b0007b18e000821890007b1800018218b8007b18e800821898007b1808013a0b4000023a0c4800023a065000023a085800027b1b38017b1c30017b1628017b1820017b1ad000821688007b16f0008218a0007b1810018218a8007b1818017b19c80095192001951a0001951be000951cc0007b12c00033085020520267cd82174917187b76108218b8007b78088218b0007b789551a0fc9517000382705882755082764895116003320000330054023302ec01286f0f3300560233021602281512502258026d0b52075c3a076000027b17583a076800023a087000023a097800027b17507b18489518407b1940646750205a025cca50225c02d50d5108288367203a088000024911304911287b183895182049112050205e0236ca50226002430c320000502264024d0e330066023302580228fc0a50226802950a3200828a10828218828c08828bd42c08d4ab09d48909989920d4a808978820d498085208aa00951160ff7b1098007b1590007b1688009515a0008411f0647695b7207b1710d8b707c87c087b1808d8c808da7708c8a8087b18d8a807c8270750226a020d1050206c02abc950226e02a80e33007002951140ff7b10b8007b15b0007b16a8009515c0008411f0828a828908828b108288187b1718491158491150491148491140267b18787b1b707b1968951780009518609519407b1a60330062022855ed50227202120c32000051070b50227602b10d3200951780003300780233023828da0e50227a02c00b52075050227c02a80d50207e021bc950228002360a5020820201ff821748821258821340821a50821810d3870bd8870c6484821918d89308dab80cc96a0bd86a0a821608c96206502284028a0a5107040082171864685020860264cc83788369330701330088020a0a01951130ff7b10c8007b15c0007b16b8009515d0008411f082787b18288278087b18208278107b18188277187b17103306300103836733008a020a0333028c0228770c50228c02740c4921880049218000491170019517900095187049117833008e023302d80128f90c8217a000821890008219a800821a980050229002dd0f4911684911607b17509517504911583300920233027402282e0b8217107b17488217187b17408217207b17389517308218287b183033009402951180fe7b1078017b1570017b166801951580018411f0827a1082790882788277187b17207b1a2897a720987a207b18387b1930d498077b1a18d4a7078e7749215801492150017b17400195174001492148013300cc023302b40228b10a955130ff8210c8008215c0008216b8009511d00032005207663a078800027b17583a079000023a089800023a09a000027b17507b18489518407b194064675020980266c750229a02df0a5108328367203a08a800024911287b1838140800000000737365727b183095182049112050209c0236c750229e0243093200005020a2022deb5022a402470b3300a6023302960228f6075022a8028f073200828a10828218828c08828bd42c08d4ab09d48909989920d4a808978820d49808520861951160ff7b1098007b1590007b1688009515a0008411f0647695b7207b1710d8b707c87c087b1808d8c808da7708c8a8087b18d8a807c827075022aa02080d5020ac02a6c65022ae02a30b3300b0023302a00228b7085022b202550932000051070b5022b602f40a3200951780003300b802330238281d0c5022ba0203095207505022bc02eb0a5020be025ec65022c00279075020c2024aff821748821258821340821a50821810d3870bd8870c6484821918d89308dab80cc96a0bd86a0a821608c962065022c402cd075107040082171864685020c602a7c9837883693307013300c8020a0a3302ca022827065022ca0224063200492118014921100149210801951720019518000149210001013300ce023302d80128730a821738017b1710821730017b1708821728017b17821620019517e0003300d00233023828550b8218f8008219f000821ae8008217e0005022d20288085208b700492198008218387b1880007b16a0008216307b16880082187b18a8003a08b000023a09b800023a0ac000023a0bc800027b18d8007b19d0007b1ac8007b1bc0008218187b1890008218087b18b0009519c000951aa000951b80008218107b18b80033085020d402fac68217207b17588217287b17507b16488217387b17404911784911704911689517609518403309017b19603300d60233023e28cb0c955180fe821078018215700182166801951180013200005022da02d3084921c8004921c0004921b000019517d0009518b0004921b8003300dc023302d8012855098217e0008218d0008219e800821ad8005022de02390c4921a8004921a0007b17900095179000492198003300e002330274022885078217107b17688217187b17608217207b17588217287b17508217307b1788008217387b1780008217407b17789517709518508219487b19705020e202ad019551f0fe82100801821500018216f8009511100132005207663a07d000027b17583a07d800023a08e000023a09e800027b17507b18489518407b194064675020e602fcc35022e80275075108328367203a08f000024911287b18381408000000006f72657a7b18309518204911205020ea02ccc35022ec02d9053200005020f002c3e75022f202dd073300f4023302e402288c045022f60225043200828a10828218828c08828bd42c08d4ab09d48909989920d4a808978820d49808520861951160ff7b1098007b1590007b1688009515a0008411f0647695b7207b1710d8b707c87c087b1808d8c808da7708c8a8087b18d8a807c827075022f8029e095020fa023cc35022fc0239083300fe023302ee02284d0550220003eb0532000051070b502204038a073200951780003300060333023828b30850220803990552075050220a03810750200c03f4c250220e030f04502010034aff821748821258821340821a50821810d3870bd8870c6484821918d89308dab80cc96a0bd86a0a821608c96206502212036304510704008217186468502014033dc683788369330701330016030a0a01951130fe7b10c8017b15c0017b16b8019515d0018411f08289187b192082797b19388279087b19408279107b19488289107b1918828a087b1a30828b7b1b28827618979720987820d4ab077b1808d487078e774921a8014921a0017b17900195179001492198013300180333020203282e057b16107b1648018217487b1740018217407b1738018217387b1730014921680149216001492158019517700195185001951930014921500133001a0333025c28bc09821970018217780182188001821a8801821b207b1b0801821b187b1b0001821b307b1bf800821b287b1bf0007b1a28017b1820017b171801951710019518f0007b19100150201c03c3ef330630010383670a0338074001037b17203a073801037b17183a063001039517d00033001e033302382819078218e8008219e000821ad8008217d000502220034c045208b4008218186f89979820821a206faa98aa20d48a026f6a97ab20989920d4b90998aa20491168492188008218287b18708218387b1890008218307b18788218407b1898003a0bf800023a0c0001023a060801023a081001027b1bc8007b1cc0007b16b8007b18b0007b1a608218087b1880008218487b18a0008218107b18a8007b19589519b000951a9000951b70951c507b12503308502022034fc3955130fe8210c8018215c0018216b8019511d00132000033075020240367c4330701502026035ec4502228032b048282828308828410828818829a829b08829c1082991864767b19187b1c107b1b087b1a7b18387b14307b132895174095182064197b122050202a0356e450222c03a00032008217b8007b17188216b0008218a8007b1810821aa0007b1a088219207b19588219287b19508219307b19488219387b19407b17787b16707b1868951780009518609519407b1a603202646482178800821898007b183882138000821a9000d3b706d8b70cd80308da680cc94a063202828918828a10828b0882887b79187b7a107b7b087b7832029551a08210588215508216489511603202821750821858821940821a487b67107b68187b697b6a08955180821078821570821668951180003202956740d86708821ac88a09d8a90ada880a821808c88a0ad88a08821b10c8b808821b187bb9087bb77bba107bb818955140ff8210b8008215b0008216a8009511c0003202821918821b10821008d49b07d46008d47808988820d46707977720d4870732029511807b10787b15707b1668951580008411f0827910827a1882780882767b18187b1a08d4a807d49608d478089888207b1910d49707977720d487073202821818958704d88708821a10c88a09d8a90ada880ac86a0ad86a08821b08c88b0b7b19287b17207b1a309517409518207b1b3832028217e8007b17288217e0007b17208217f8007b17188217f0007b1710821838958720d88708821ac88a09d8a90ada880a821830c88a0ad88a08821b08c88b0b7b1a707b19687b1760951780009518609519407b1b783202c9a606d8cb0ac9a606c9cb0bc94707c98707c99308d467076486d4b808d47808d4b707988820977720d487073202821420821310821918c94909c9a909c98909c90606c9c608c93b0a8e8c88aa2085aa01db8c0a8f968218288e8cdb960cd49808db8c0a3202955180821078821570821668951180003202951140ff7b10b8007b15b0007b16a8009515c0008411f0828a828908828b108288187b17184911584911504911484911402c7b18787b1b707b1968951780009518609519407b1a6032028217108218188219821a087b67107b68187b697b6a089551c08210388215308216289511403202821998008216900082178800821880007b17107b1908d497077b1818d46808d47808988820d46707977720d487073202821750821858821940821a487b67107b68187b697b6a08955160ff8210980082159000821688009511a0003202d4a808d4970ad48a0a98aa20d49808978820d4a8083202951140ff7b10b8007b15b0007b16a8009515c0008411f0827810827918827a088277d4a909d48707d497073202951140ff7b10b8007b15b0007b16a8009515c0008411f08289828a08828b1082881864767b18587b1b507b1a487b1940491178491170491168951780009518609519404911603202821710821808d487071408e0ffffff00000000d886088219189498947832029511807b10787b15707b1668951580008411f03202821790008218980082198000821a88007b67307b68387b69207b6a288217107b67108217187b67188217207b678217287b67089551e0fe82101801821510018216080195112001320282670882688169106f77987a206f88978b20d4ba0a7b1a089777206f99989920d497077b17988620320282168000821988007b19821890007b1808821798007b17107b17387b18307b19289517207b16203202828910828a18828b088288d4ba0ad4980bd4ab0b98bb20d4a909979920d4b9093202955140ff8210b8008215b0008216a8009511c0003202491170491168491160140700000000a079c3089518607b177882171832029511a07b10587b15507b16489515608411e06476828718828910828a0882887b17387b19307b1a287b1820641795182032029511b07b10487b15409515508411f0491130491128491120140700000000717b484e9518207b1738330732028217087b17288217107b172082177b17309517409518208219187b19383202955160ff8210980082159000821688009511a0003202d87a07821960c87908d89809da7709821770c87909d87907821b68c8b7073202951150ff7b10a8007b15a0007b1698009515b0008411f0828410828308829608828c7b1c10829b320282ab7b1b1882ab087b1b2082ab107b1b2882aa187b1a308296829a087b1a829a107b1a088299187b191032029511c07b10387b15307b16289515408411f06476641732028217800082188800821970821a787b67107b68187b697b6a08955150ff8210a8008215a000821698009511b000320238071801024921380149213001492128017b1720014921580149215001492140010495176001951840019519200149214801320238071801024921180149211001492108017b170001492138014921300149212001049517400195182001951900014921280132027b17184911784911704911602095186049116864b73202951160fe7b1098017b1590017b1688019515a0018411e049217801492170014921680149216001831760013202d88708821a68c88a09d8a90ada880ac86a0ad86a08821b783202951120fe7b10d8017b15d0017b16c8019515e0018411e04921b8014921b0014921a8014921a0018317a0013202828a10828b18828c088289d4cb0bd4a908d4b808988820d4ba0a97aa20d4a80832027b1b80007b19b8007b18b0007b17a8009517c0009518a000951980007b1aa000320282a71882a81082a90882aa6f776f886f996faa32028411f0829a7b1a78829a087b1a58829a107b1a508299187b194882893202821940018217480182185001821a58017b1ad8007b18d0007b17c8009517e0009518c0007b19c00032029511a07b10587b15507b16489515608411e03202d36707821bd3b808d48707821808d3a808d49808d487078877013202821980008217880082189000821a98007b1a187b18107b170895172064187b193202951160ff7b1098007b1590007b1688009515a0008411e03202849a40520a195109148d9a40cfa80ad09808d09707d4a707320032009597c0d0780733083200849a40520a195109148d9a40d0a70acf9707cf9808d4a808320032009598c0cf870833073200214225a952484992244992244992244992244992244992244992244992244992244992244992542529a524292949a84a494a922449922449922449922449922449922449922449929224294955494a922849254955924249929294a4aa2a494952924a9222222225499290502a29292952a4489122458a14252922228a88889424494a922421a1a8489122458a142952a4489122458a14294aa488882849128490309426a5211192249284242149d2244912898888845208a194a4241111898888485292242549920c15aaa950a549922452428894262048402010244890444248249144121191888828211111918888282121549224294992902449922421949254924424212a2929499224218490244992142222a24992a42a49494a9234222292a4922449922449529224494a524a92124522229124240985502549929224495248922449428860924225254948924221494a08110c25290921294909559224490a2182490a95942421490a4544444a9224252951242212914444244992244992489292249124499224499224495292942422228a244952922449a9144992540a92920449a420922249922449924810a954659292a4888848922425491111892049922449922449522495242905499224288912944449922449920495a45492121411914824221291a488882449922489484422121111892022222222499244922022224989888842299a94a49224494a524a4192344922a9244992244992922449928824492941d18888241104111111111111111111111111919224952411111111111149241289442441102448922449922449061554512448922425499224414a9224910405491249254992244992942449924424494a098a464424892022414422914824220982204192244992244932a8a08a2241342222490441444444444444444444444444a424492a4911111111111149241289442441102448922449922449061554d12449254992244941509292484a101411912442444444888820221289442211491004099224499224499241055514091204414b5249929424499244a42449922429094a5222121189884444241289442291888844502422aa2649922449922492244992244992244912912022229148248848242292244992a452491211118d88882429499224922429495292241121a2a024499224892489888888444424291111d1684444920822124424128944229220081224499224499224830aaa68124092544aa11445822449a4524a922449122449524123924492549224499224494a9224499194924489442222114924128924499224494444442491482492041111111189442251124444444412119124254992244992244949449228884812892489469224891011111122228248241289444444444444444444444424128944444424824824128948822048902449922449920c2aa8a2489024494a9224498294244922121404454424494892242249442222922441912429c820a8a21111912495244992244992922449529252929428121189488288040511118988884644248990241121221144444444244992241111112949929424494251a44892146408aa680aa568492a92209224494a504444914824082222922449920449929488882849922425499224254949928224499224252568909294a024498a888888242222914824128944442482482412894422221149241251c9244992244992444422229124221111894422414492442291489224499224499224494a4992442489822429418860288926495249499224499224499224495249499224499224499220495244222222254992442491884422221289444424222249442212919424499224499244244992204992141111451204499294a024499254520a92a4499088229148444444240912119148242212114992242922224a244992a449922449525252905293b4640a2a5124289148122412491214912249229144902a5144514a9412241111a44a5092449224914804a95425499224924492244949444411114992244992444444121111919224495224499294244922512495241140148988888888082222a28888489224254989442211114444524492244912111191201189442291888844101111119124491211111111898888889424494a9224454444442222a2884424892449529244a2482412459224a588242222928a244912499224491222428810111149904824128988888844229148241211119188888848499292a4a424495292242525499224222222222222111191a4489224499248244992a82022222249111191449224910092a4119144949248492422222222222222928888888888888888084285080911494444102951529244444444448410424444444444444444149444a28824d188442448480821490a8224244982a0414482929424492222225292244949100411111129499244924812099aa088244810044192242949920499824a3422225292240945912022228948444490248948922449222222929424499214111111898888121242489282200949004982a0411091a0242549924444444a922429098220224113149104098220489224254992205350892241111111221289441191444404118948142184101191484444a2204992244992482222a2414488888844440411111191244992442249922022224a480821490a822424012409820641448292942449121111294992a424088288044d504412240882204992942449824c41251a1111494a9224494992a4888888482291484444444424111189442211111111840a09091149444410292929491249224984104244441289442292144444440b1204252949494a929420281291489224499248521189489294a424952429499292245152922449521211112549922425492449499224494992244992242912894492942449922492942449529224254992a424a52425491411112949924492485252929224292222499224294992121111254992222222494a524444a42425499248529200922a49224544244992a42422224a2925494929a24824495292922449111151920092942449494a92529224490049254949922222a2244992a4888848925225499252929424491591242522220a1111112122a21011111122224a12494544442222a2244992222222111151929224491111111125a9aa9424492a22222222a224494a4992a4888824a92222222549925452499224951400","linkReferences":{}},"methodIdentifiers":{"addWalletByOwner(bytes32,address)":"fda3ae0e","createWallet(bytes32,bytes32,address,bytes32)":"e4117602","getWallets(bytes32)":"ca6e3362","owner()":"8da5cb5b","transferOwnership(address)":"f2fde38b","walletAt(bytes32,uint256)":"26611753","walletsByHash(bytes32,uint256)":"1c9cf817","walletsCount(bytes32)":"223064ad"},"id":19}