{"abi":[{"type":"constructor","inputs":[{"name":"_vKey","type":"bytes32","internalType":"bytes32"},{"name":"_verifier","type":"address","internalType":"address"},{"name":"_ownerCommitment","type":"bytes32","internalType":"bytes32"}],"stateMutability":"nonpayable"},{"type":"receive","stateMutability":"payable"},{"type":"function","name":"executeTransfer","inputs":[{"name":"to","type":"address","internalType":"address payable"},{"name":"amount","type":"uint256","internalType":"uint256"},{"name":"nonce","type":"uint256","internalType":"uint256"},{"name":"proof","type":"bytes","internalType":"bytes"},{"name":"pubSignals","type":"bytes","internalType":"bytes"}],"outputs":[],"stateMutability":"nonpayable"},{"type":"function","name":"isNonceUsed","inputs":[{"name":"nonce","type":"uint256","internalType":"uint256"}],"outputs":[{"name":"","type":"bool","internalType":"bool"}],"stateMutability":"view"},{"type":"function","name":"ownerCommitment","inputs":[],"outputs":[{"name":"","type":"bytes32","internalType":"bytes32"}],"stateMutability":"view"},{"type":"function","name":"usedNonces","inputs":[{"name":"","type":"uint256","internalType":"uint256"}],"outputs":[{"name":"","type":"bool","internalType":"bool"}],"stateMutability":"view"},{"type":"function","name":"vKey","inputs":[],"outputs":[{"name":"","type":"bytes32","internalType":"bytes32"}],"stateMutability":"view"},{"type":"function","name":"verifier","inputs":[],"outputs":[{"name":"","type":"address","internalType":"contract ISP1Verifier"}],"stateMutability":"view"},{"type":"event","name":"ExecutedTransfer","inputs":[{"name":"to","type":"address","indexed":true,"internalType":"address"},{"name":"amount","type":"uint256","indexed":false,"internalType":"uint256"},{"name":"nonce","type":"uint256","indexed":true,"internalType":"uint256"}],"anonymous":false},{"type":"event","name":"Received","inputs":[{"name":"from","type":"address","indexed":true,"internalType":"address"},{"name":"amount","type":"uint256","indexed":false,"internalType":"uint256"}],"anonymous":false},{"type":"error","name":"InsufficientBalance","inputs":[]},{"type":"error","name":"InvalidProof","inputs":[]},{"type":"error","name":"InvalidPublicInputs","inputs":[]},{"type":"error","name":"ReplayNonce","inputs":[]}],"bytecode":{"object":"0x60c060405234801561000f575f5ffd5b50604051610bb5380380610bb58339818101604052810190610031919061017b565b5f73ffffffffffffffffffffffffffffffffffffffff168273ffffffffffffffffffffffffffffffffffffffff160361009f576040517f08c379a000000000000000000000000000000000000000000000000000000000815260040161009690610225565b60405180910390fd5b8173ffffffffffffffffffffffffffffffffffffffff1660808173ffffffffffffffffffffffffffffffffffffffff16815250508060a0818152505082600181905550505050610243565b5f5ffd5b5f819050919050565b610100816100ee565b811461010a575f5ffd5b50565b5f8151905061011b816100f7565b92915050565b5f73ffffffffffffffffffffffffffffffffffffffff82169050919050565b5f61014a82610121565b9050919050565b61015a81610140565b8114610164575f5ffd5b50565b5f8151905061017581610151565b92915050565b5f5f5f60608486031215610192576101916100ea565b5b5f61019f8682870161010d565b93505060206101b086828701610167565b92505060406101c18682870161010d565b9150509250925092565b5f82825260208201905092915050565b7f76657269666965722072657175697265640000000000000000000000000000005f82015250565b5f61020f6011836101cb565b915061021a826101db565b602082019050919050565b5f6020820190508181035f83015261023c81610203565b9050919050565b60805160a05161094a61026b5f395f6104c001525f81816101d101526102ce015261094a5ff3fe608060405260043610610058575f3560e01c80632b7ac3f3146100b15780635d00bb12146100db578063625baeab146101175780636717e41c1461014157806388f665a41461017d57806391ee7961146101a5576100ad565b366100ad573373ffffffffffffffffffffffffffffffffffffffff167f88a5966d370b9919b20f3e2c13ff65706f196a4e32cc2c12bf57088f88525874346040516100a391906104fa565b60405180910390a2005b5f5ffd5b3480156100bc575f5ffd5b506100c56101cf565b6040516100d2919061058d565b60405180910390f35b3480156100e6575f5ffd5b5061010160048036038101906100fc91906105d8565b6101f3565b60405161010e919061061d565b60405180910390f35b348015610122575f5ffd5b5061012b610218565b604051610138919061064e565b60405180910390f35b34801561014c575f5ffd5b50610167600480360381019061016291906105d8565b61021e565b604051610174919061061d565b60405180910390f35b348015610188575f5ffd5b506101a3600480360381019061019e9190610703565b61023a565b005b3480156101b0575f5ffd5b506101b96104be565b6040516101c6919061064e565b60405180910390f35b7f000000000000000000000000000000000000000000000000000000000000000081565b5f5f5f8381526020019081526020015f205f9054906101000a900460ff169050919050565b60015481565b5f602052805f5260405f205f915054906101000a900460ff1681565b6005828290501015610278576040517f6773afec00000000000000000000000000000000000000000000000000000000815260040160405180910390fd5b5f5f8681526020019081526020015f205f9054906101000a900460ff16156102cc576040517f681bc06c00000000000000000000000000000000000000000000000000000000815260040160405180910390fd5b7f000000000000000000000000000000000000000000000000000000000000000073ffffffffffffffffffffffffffffffffffffffff166341493c60600154848488886040518663ffffffff1660e01b815260040161032f959493929190610814565b5f6040518083038186803b158015610345575f5ffd5b505afa158015610357573d5f5f3e3d5ffd5b5050505060015f5f8781526020019081526020015f205f6101000a81548160ff021916908315150217905550854710156103bd576040517ff4d678b800000000000000000000000000000000000000000000000000000000815260040160405180910390fd5b5f8773ffffffffffffffffffffffffffffffffffffffff16876040516103e290610888565b5f6040518083038185875af1925050503d805f811461041c576040519150601f19603f3d011682016040523d82523d5f602084013e610421565b606091505b5050905080610465576040517f08c379a000000000000000000000000000000000000000000000000000000000815260040161045c906108f6565b60405180910390fd5b858873ffffffffffffffffffffffffffffffffffffffff167f3ef119ee9aa16f411973f79169a48d2ce1c83c9082df8f4663e4a33e3788511f896040516104ac91906104fa565b60405180910390a35050505050505050565b7f000000000000000000000000000000000000000000000000000000000000000081565b5f819050919050565b6104f4816104e2565b82525050565b5f60208201905061050d5f8301846104eb565b92915050565b5f73ffffffffffffffffffffffffffffffffffffffff82169050919050565b5f819050919050565b5f61055561055061054b84610513565b610532565b610513565b9050919050565b5f6105668261053b565b9050919050565b5f6105778261055c565b9050919050565b6105878161056d565b82525050565b5f6020820190506105a05f83018461057e565b92915050565b5f5ffd5b5f5ffd5b6105b7816104e2565b81146105c1575f5ffd5b50565b5f813590506105d2816105ae565b92915050565b5f602082840312156105ed576105ec6105a6565b5b5f6105fa848285016105c4565b91505092915050565b5f8115159050919050565b61061781610603565b82525050565b5f6020820190506106305f83018461060e565b92915050565b5f819050919050565b61064881610636565b82525050565b5f6020820190506106615f83018461063f565b92915050565b5f61067182610513565b9050919050565b61068181610667565b811461068b575f5ffd5b50565b5f8135905061069c81610678565b92915050565b5f5ffd5b5f5ffd5b5f5ffd5b5f5f83601f8401126106c3576106c26106a2565b5b8235905067ffffffffffffffff8111156106e0576106df6106a6565b5b6020830191508360018202830111156106fc576106fb6106aa565b5b9250929050565b5f5f5f5f5f5f5f60a0888a03121561071e5761071d6105a6565b5b5f61072b8a828b0161068e565b975050602061073c8a828b016105c4565b965050604061074d8a828b016105c4565b955050606088013567ffffffffffffffff81111561076e5761076d6105aa565b5b61077a8a828b016106ae565b9450945050608088013567ffffffffffffffff81111561079d5761079c6105aa565b5b6107a98a828b016106ae565b925092505092959891949750929550565b5f82825260208201905092915050565b828183375f83830152505050565b5f601f19601f8301169050919050565b5f6107f383856107ba565b93506108008385846107ca565b610809836107d8565b840190509392505050565b5f6060820190506108275f83018861063f565b818103602083015261083a8186886107e8565b9050818103604083015261084f8184866107e8565b90509695505050505050565b5f81905092915050565b50565b5f6108735f8361085b565b915061087e82610865565b5f82019050919050565b5f61089282610868565b9150819050919050565b5f82825260208201905092915050565b7f7472616e73666572206661696c656400000000000000000000000000000000005f82015250565b5f6108e0600f8361089c565b91506108eb826108ac565b602082019050919050565b5f6020820190508181035f83015261090d816108d4565b905091905056fea2646970667358221220eea8ae97aceb6495fb0f7a59094c32bdc2717dd6733c01142b1b9233eeafe3bb64736f6c634300081e0033","linkReferences":{}},"methodIdentifiers":{"executeTransfer(address,uint256,uint256,bytes,bytes)":"88f665a4","isNonceUsed(uint256)":"5d00bb12","ownerCommitment()":"91ee7961","usedNonces(uint256)":"6717e41c","vKey()":"625baeab","verifier()":"2b7ac3f3"},"id":18}