{"abi":[{"type":"constructor","inputs":[{"name":"_vKey","type":"bytes32","internalType":"bytes32"},{"name":"_verifier","type":"address","internalType":"address"},{"name":"_ownerCommitment","type":"bytes32","internalType":"bytes32"}],"stateMutability":"nonpayable"},{"type":"receive","stateMutability":"payable"},{"type":"function","name":"executeTransfer","inputs":[{"name":"to","type":"address","internalType":"address payable"},{"name":"amount","type":"uint256","internalType":"uint256"},{"name":"nonce","type":"uint256","internalType":"uint256"},{"name":"proof","type":"bytes","internalType":"bytes"},{"name":"pubSignals","type":"bytes","internalType":"bytes"}],"outputs":[],"stateMutability":"nonpayable"},{"type":"function","name":"isNonceUsed","inputs":[{"name":"nonce","type":"uint256","internalType":"uint256"}],"outputs":[{"name":"","type":"bool","internalType":"bool"}],"stateMutability":"view"},{"type":"function","name":"ownerCommitment","inputs":[],"outputs":[{"name":"","type":"bytes32","internalType":"bytes32"}],"stateMutability":"view"},{"type":"function","name":"usedNonces","inputs":[{"name":"","type":"uint256","internalType":"uint256"}],"outputs":[{"name":"","type":"bool","internalType":"bool"}],"stateMutability":"view"},{"type":"function","name":"vKey","inputs":[],"outputs":[{"name":"","type":"bytes32","internalType":"bytes32"}],"stateMutability":"view"},{"type":"function","name":"verifier","inputs":[],"outputs":[{"name":"","type":"address","internalType":"contract ISP1Verifier"}],"stateMutability":"view"},{"type":"event","name":"ExecutedTransfer","inputs":[{"name":"to","type":"address","indexed":true,"internalType":"address"},{"name":"amount","type":"uint256","indexed":false,"internalType":"uint256"},{"name":"nonce","type":"uint256","indexed":true,"internalType":"uint256"}],"anonymous":false},{"type":"event","name":"Received","inputs":[{"name":"from","type":"address","indexed":true,"internalType":"address"},{"name":"amount","type":"uint256","indexed":false,"internalType":"uint256"}],"anonymous":false},{"type":"error","name":"InsufficientBalance","inputs":[]},{"type":"error","name":"InvalidProof","inputs":[]},{"type":"error","name":"InvalidPublicInputs","inputs":[]},{"type":"error","name":"ReplayNonce","inputs":[]}],"bytecode":{"object":"0x50564d00009c50000000000000010700c1d000c00080036472656966697265766572697571657220726566736e6172740064656c69616620416fa19aee19f13e2c8da46991f77319468fdf82903cc8e11f5188373ea3e46319990b376d96a5887065ff132c3e0fb2122ccc324e6a196f745852888f0857bf4000000004813a130000000007000000110000001500000023000000310000003f000000450000004e0000005b0000006d000000780000008700000094000000a4000000b4000000bf000000d1000000dc0000006164647265737362616c616e63655f6f6663616c6c63616c6c5f646174615f636f707963616c6c5f646174615f6c6f616463616c6c5f646174615f73697a6563616c6c6572636f64655f73697a656465706f7369745f6576656e746765745f696d6d757461626c655f646174616765745f73746f72616765686173685f6b656363616b5f3235367265665f74696d655f6c65667472657475726e5f646174615f636f707972657475726e5f646174615f73697a657365616c5f72657475726e7365745f696d6d757461626c655f646174617365745f73746f7261676576616c75655f7472616e73666572726564051102bcec0463616c6cbcf4066465706c6f7906c0cb4e815402c0a8436a00b201f50260039403e403e603ee03c904d204070526052b053805260632065c0665067906ad06d406e506ea0601071a075b0765076f07790784078e07c907ce07e407e907f107f6070b082b084108640826093c097909c309de09e009e809ed09f209360a3b0a5b0a600a640a7f0a440b710b980bf80b5d0ca40ce00c380dac0db50ddc0deb0d0b0e110e1c0e220e9c0ea20ead0eca0ecd0ed60ee60eec0ef50efb0e010f070f390f480f5c0f620f640f9b0fbc0fc20fc40fe70f11104b10a010b010d910e2100511141171118d118f119c11a211ac11b211bc11c211cc11d211dd11e311ec112912331246124c124e124a137f13a413ad13d813e7134414601462146f1475147f1485148b14e0140a1510151b1521152a15671571157e15da15f115061642167016db16f6160d174b1773177517a217a417ad17cd17dc1739185518571864186a1874187a1812191819221928193319391942197f1989199c19a219a419e219061a591a5b1a951af81a0d1b221b571b591b931bc01bcd1bd31bdd1be31be91b431c6d1c731c7e1c841c8d1cca1cd41ce71ced1c171d1d1d231d3f1d421da21eaa1e6b1fd61f3c20492010211e210022db223523ad24bb24ea24f024fd240d25362543254925522558256125672571257725822588259125ce25d825e525f425fa250f2611263c2659265b2661267d2697260d274127d12746284c28d42855296729c629d329262a962a9f2a1b2b852bbb2bc82b1c2c492c5d2c632c652c8f2c952c062d522da52dd22df82d632ea72ea92eb22ecf2ede2efe2e042f0f2f152f8f2f952fa02fbd2fc02fc92fd92fdf2fe82fee2ff42ffa2f2c303b3049307331a931d0310b328532eb32aa34633571352a366836ad3635379b374638bd38e038ee384839a639863aa43aaf3a233b2e3b3d3bb53b113c6a3cd53cf43cfd3c893d9511e87b10107b15087b163306600002390560000251051c3307900003837783680a090139076000022003600002ac57108210108215088216951118320000390860000251088706330790000383770a10287a069511f07b10087b1564896475330820649750100210047c78017c797c7a027c7b03978808d4980897aa1097bb18d4ba0ad4a8087c79057c7a047c7b067c7c07979908d4a90997bb1097cc18d4cb0bd4b909979920d489027c79097c7a087c7b0a7c7c0b979908d4a90997bb1097cc18d4cb0bd4b9097c7a0d7c7b0c7c7c0e7c780f97aa08d4ba0a97cc10978818d4c808d4a808978820d498037c78117c7a107c7b127c7c13978808d4a80897bb1097cc18d4cb0bd4b8087c7a157c7b147c7c167c791797aa08d4ba0a97cc10979918d4c909d4a909979920d4890a7c78197c79187c7b1a7c7c1b978808d4980897bb1097cc18d4cb0bd4b8087c791d7c7b1c7c7c1e7c771f979908d4b90997cc10977718d4c707d49707977720d487076f776fa86f396f2a7b5a187b59107b58087b57821008821595111032009511d87b10207b15187b161082897b19088289087b19828510828618330820501004c8026f686f59821a6faa821b086fbb787b18787a10787908787898bc38787c1f98bc30787c1e98bc28787c1d98bc20787c1c98bc18787c1b98bc10787c1a98bb08787b1998ab38787b1798ab30787b1698ab28787b1598ab20787b1498ab18787b1398ab10787b1298aa08787a11989a38787a0f989a30787a0e989a28787a0d989a20787a0c989a18787a0b989a10787a0a98990878790998893878790798893078790698892878790598892078790498891878790398891078790298880878780182102082151882161095112832009511a07b10587b15507b16489515608411e06476828718828910828a0882886f776f996faa6f887b18187b1a107b19087b17491138491130491128491120481140208318831a20831b403309ff33070a0a821738821830821928821a206f776f886f996faa7b6a187b69107b68087b67501206223b32009511a07b10587b15509515608411e08272827a08827b108277188283828908828c108288186f746fbb6faa6f276f826fcc6f996f387b17187b1a107b1b087b147b18387b19307b1c287b12208318831a203309ff330b2033070a119551a0821058821550951160320082ab7b1b3882ab087b1b3082ab107b1b2882aa187b1a20829a7b1a18829a087b1a10829a107b1a088299187b19648650100ae60082186f888219086f99821a106faa821b186fbb7b1b587b1a507b19487b18408218206f888219286f99821a306faa821b386fbb7b1b787b1a707b19687b18608379836a8317403308020a0850120cc23c32007b18385010108c006f687b187882186f887b18708218086f887b18688218106f887b18608218186f887b1898008218206f887b1890008218286f887b1888008218306f887b1880008218406f887b18b8008218486f887b18b0008218506f887b18a8008218586f887b18a0008379811a388317603308030a08955120ff8210d8008215d0008216c8009511e00032008b7910520931c8780883881f8488e05638000001253309680002390a680002ae8a093d086800020133087000028377c887073200009511f07b10087b158475010a050133086400023d076400025105075010120d33001433022e284a3e951160fe7b1098017b1590017b1688019515a0018411e0492158014921500149214001c00033074095184001492148015010168cfc49217801492170014921680149216001831760013300180a1233021a28923d50121a8f3d52072c019517e00050101c2a078217e0007b17188213e8008214f0008210f80082120001821c080182161001821b1801821a20018218280182193001821738017b1798007b1990007b1888007b1a80007b1bb8007b16b0007b1ca8007b12a0007b10d8007b14d0007b13c8009517c0009518a00095198000821a187b1ac00033001e9511f0fe7b1008017b1500017b16f800951510018411f0827a7b1a48827a087b1a40827a107b1a388277187b173082977b17288297087b1720808b107b1b828a7b1a088286088297107b17188297187b1710d4ba07d467078e774921e8004921e0007b17d0009517d0004921d8003300ba0033029a0028b13b95176033002033024628d23b821778821870821968821660d49707d48609d47909989920d48707977720d497075107090050102228206467330850102415fe8377330833090a0395174033088000501026e0f9821758330b9000037b1b18821850821948821a403e07a800033e08a000033e099800033e0a9000039517203308a000501028acf9821738821830821928821a20821b187bb7387bb8307bb9287bba202877f96467330850102aa6fd83783307330933002c0a0f33022e28373c50122e343c49111849111049018000330740641849110850103092fa330664000239076400025317047183172033083300320a040181173c5147a465f6887133086179ee91aa875a3308f3c37a2baa8728330812bb005daa87333308abae5b62aa872033081ce41767ab872b33003433027e0128e93a3300363302d20028553833003833024601284b3833003a3302040128cb3a81670151074d50103c001f33003e3302ca01282c38330040951100fd951700027b70f8007b75f0007b76e800951500038411e0951700024927d8004927d0004927c8004927c0008317c0020a1228161b501042743333087000028388330733093300440a0f33024628203a5012461d3a33084050104868f850124ab836320033024c9511b07b10487b15409515508411f001491130491128491120140700000000717b484e9518207b1738330750104e68f9491118491110490141330704641849110850105052f9390868000256183f0b20036800024001330870000283883307013309243300520a0f019511b07b10487b15407b16389515508411f064728289827408828c088273959a1fd89a00c80c0984aae07b1308c8a303d8a30bc8490ac8ba0ad39a06d89a07da6b07822b18d8c90c828610822210828818da000cc86c0cd86c06c82c09c89707d8c90cd89709c8b808c86808c8c808c8980c8ec88e79dbc809d4c7088ea6db8906520652821808d88308d34a09d84a06da9806d82708d3bc09d8bc0bda980bd32708d49808da860b520b2b7b13107b1a187b17203307409518107b1c285010546df89551b08210488215408216389511503200501056c1fe951140ff7b10b8007b15b0007b16a8009515c0008411f082897b19388289087b19308289107b19288288187b1820647695178000330058330246288b38821980007b19821788007b1718821a90007b1a10821b98007b1b088218207b18588218287b18508218307b18488218387b18407b1b787b1a707b17689517609518407b196050105aa6fe8217087b67188217107b67108217187b670882177b6750125cde3632005209145012601e385010626cf6501264bc3432000082781082771814090000000001000000d38909d479099888208888019478939851080532009511f87b103308700002838833070133093300660a0f33026828543450126851345209469511807b10787b15707b1668951580008411f0647695174050106afef550126cbe3750106e958217087b67188217107b67108217187b670882177b675012705634320000951160fe7b1098017b1590017b1688019515a0018411f0828310828208829a08828c829b7b1b30829410d32a067b1648d82a06d8cb00821b48dab006828b188298187b1828c93409c969087b1838d869087b1350d8340664b4821928c9b909c96909c98909c92a08c908087b1c58821a30c9ca0a8e8b88aa6085aa01db8b0a8f98821c388ecbdb980bd49c08db8b0a510a470164768217587b1740017b12407b1248018217507b17500195176001951840017b14487b14580133007233025e284633821768017b1738821760017b1730821778017b1728821770017b1720821858958720d88708821a40501274c137821b48c88b0b7b1af0007b19e8007b17e000951700019518e0007b1bf80033007633026828f232821708017b1718821700017b1710821718017b1708821710017b17821758957a40d87a07821940c87908d89809da7709821750c87909d87907821b48c8b7077b1798007b1990007b1888009517a000951880007b1a800033007833025e2892328217b0008218b8008219a000821aa8007b67507b68587b69407b6a4882177b67308217087b67388217107b67208217187b67288217207b67108217287b67188217307b678217387b6708955160fe8210980182159001821688019511a001320050107a271a9511d0fe7b1028017b1520017b161801951530018411f0390864000264767b18289787209879204921e8004921e0004921d8009517f0009518d0007b19207b19d00050107c9dfc82190801821a00018218f8008217f0007b18187b1908d48909d4a708d498089888207b1a10d4a909979920d498085208d9008218287b1750107e9af7837782182833090a038217208219c89707d897086494821c18c88c03d8c30ada880a821b10c8ba0ad8ba08821908c889027b17307b19687b1b607b1c587b14507b13387b1a409517709518509519307b12485020800050fd8217787b17288217707b172082148800821080008213980082129000821ca800821ba0008219c000821ac8008217b0008218b8007b69507b6a587b67407b68487b6b307b6c387b62207b63287b60107b64188217207b678217287b67089551d0fe8210280182152001821618019511300132000052083e5022840074333a080000023a090800027b18187b1910140800000000000000647b18086418490150208600b8f39551d0821028821520951130320000491140117b18787b1b707b1968951780009518609519407b1a6050208a00a61850228c00633433008e003302820028ed315022900027303200828a10828218828c08828bd42c08d4ab09d48909989920d4a808978820d4980852088800951160ff7b1098007b1590007b1688009515a0008411f0647695b7207b1710d8b707c87c087b1808d8c808da7708c8a8087b18d8a807c827077b17184911784911704911602095186049116864b750209200f8f25022940034343300960033028800284932821750821858821940821a487b67107b68187b697b6a0850229800dd3132000051070b50229c00e73132009517800033009e00330246281e335022a0004e325207505022a200a8335020a40099f25022a60057305020a80023ff821748821258821340821a50821810d3870bd8870c6484821918d89308dab80cc96a0bd86a0a821608c962065022aa000e315107040082171864685020ac0033f5837883693307013300ae000a0f3302b00028322e5022b0002f2e320082897b19188289087b19108289107b1908828618827818827910827a0882777b18587b19507b1a487b17409517209518405020b400ebf27b16788217087b17708217107b17688217187b17609517409518605020b60041f35022b800e53032004921c80082177b17c0007b16b800330780009518b0008219087b19b0005020bc00adf18217107b17a8008217187b17a0008217207b1798003307a000951890008219287b1990005020be0083f18217307b17688217387b17608217407b17588217487b175049218800492180004911783309019517709518507b19703300c0003302b20028e02f9551f0fe82100801821500018216f800951110013200827218828318827b10827c088289088274828a828810d3c907d8c909d84a0adb790ac9b807d8a707d8b808c92309c98909c9790957090532005020c200e5159511f07b10087b1564755020c40056ef3a08a800033a09a000033a0a9800033a079000037b58187b59107b5a087b578210088215951110320052083a5022c8004730827810827a088277978820988b204911187b177b1a0864187b1b1064975020ca008ff09551d08210288215209511303200008292828b08829308957a207b1a18d87a06c86b0a7b1a08d8ba0cda660c828a10828818829410829918c8ca06d8a60cc88c0c7b1c7b18387b1a307b1b287b17207b19587b14507b13489517409518207b12403300ce003302c60028762e8218108217087b87088217187b877b861082177b87185022d000492d32003300d4000a123302d60028a8315022d600a531520781005022d800e12d5020da00b5fe9517c0005020dc00eafe5022de00c22f3300e0003302462838305022e200d72b3300e4003302cc00288a2f5022e600462c52073f5022e800062cc9c602d8c606d84a0a821c38c99c0cc9ac0cc96c0cc9b707c98707c90306d4c707d42608d47808d42707988820977720d4870751070a005020ea005c14640764685020ec0048f28378836933073300ee000a0f3302f00028482b5022f000452b32005209449511c07b10387b15307b16289515408411e06476838883170a04821718821810821908821a7b67187b68107b69087b6a9551c0821038821530821628951140320000951150ff7b10a8007b15a0007b1698009515b0008411f0828410828308829608828c7b1c10829b829210d3360a7b1a28d8360ad8cb0c821028da0c0a64308288187b18208298187b1818c94209c9a9087b1828d8a9087b1408d8420a821420821310821918c94909c9a909c98909c90606c9c608c93b0a8e8c88aa2085aa01db8c0a8f968218288e8cdb960cd49808db8c0a510a5464767b13507b10588217087b17609517709518507b14683300f4003302f20028402b8217800082188800821970821a787b67107b68187b697b6a08955150ff8210a8008215a000821698009511b00032005020f6000613828910828a18828b088288d4ba0ad49808d4a8088e8833094917184917104917087b7832005208425022fa007c2d827818827a10827b827708d4ba0ad48707d4a7078e774911184911107b17641849110864975020fc00bced9551d08210288215209511303200008292828b08829308957a207b1a18d87a06c86b0a7b1a08d8ba0cda660c828a10828818829410829918c8ca06d8a60cc88c0c7b1c7b18387b1a307b1b287b17207b19587b14507b13489517409518207b1240330000013302f80028a32b8218108217087b87088217187b877b861082177b871850220201762a3200330006010a123302080128492e50220801462e5207ec0050220a01272d50200c0114fe50220e016a2e33001001951140ff7b10b8007b15b0007b16a8009515c0008411f08289828a08828b1082881864767b18587b1b507b1a487b1940491178491170491168951780009518609519404911603300ee0133026601284b2b8217e0007b17388217e8007b17308217f0007b17288217f8007b17209517a0003300120133024628fa2c502214019928330016013302fe00284c2c50221801082952073f50221a01c828c9c602d8c606d84a0a821c38c99c0cc9ac0cc96c0cc9b707c98707c90306d4c707d42608d47808d42707988820977720d4870751070a0050201c011e116407646850201e010aef837883693307330020010a0f019511887b10707b15687b16607b174082977b17508297087b17588297107b174882921882861882891082858288088e6a8e9bdb6a0b8e8a885c000185cc01db8a0cd46909db9b0c7b1c388359807b1564267b1218642850202201882d7b17307b182083597b192882175082185850202401712d7b17107b18088d598000821748646850202601822d821508d485058219889a80007b1a08821820daa805821858da9805821610d47606821730daa706821750da970682174882181882192850202801202d8219089398939782193894969495949794988219407b98187b97107b95087b9682107082156882166095117832008217607b17508217687b17588212708218787b1848821c3898c73d976903d4970798663d821a2897a903d4960698a93d821a4097aa03d4a90997cc037b1c408e7a88cb000185bb01db7a0b8e978e6adb970ad46909db9a0b7b1b2883c98064267b1210642750202c01872c7b17187b18208217388a79037b193882175082185850202e016c2c7b177b18088218408d8980006467821848502030017b2c821ad47a0a821940889b80007b1b821718dab70a821750da970a7b1a50821608d48606821720dab706821758da970682171082184882193850203201172c8219939793988219289496821a50949a949894978219307b97107b98187b9a7b9608502234014a29320033023801821750821858821940821a487b67107b68187b697b6a08955180821078821570821668951180003200320052083750223c017c29827a18827810827b0882777b177b1b087b181064187b1a18649750203e01c7e99551d08210288215209511303200008292828b08829308957a207b1a18d87a06c86b0a7b1a08d8ba0cda660c828a10828818829410829918c8ca06d8a60cc88c0c7b1c7b18387b1a307b1b287b17207b19587b14507b13489517409518207b12403300420133023a0128ae278218108217087b87088217187b877b861082177b87185022440181263200330048010a1233024a0128e02a50224a01dd2a52070f0150224c01192750204e01edf79517c000330050019511807b10787b15707b1668951580008411f06476491118491110491108490149113849113049112001951740951820641949112833003601951140ff7b10b8007b15b0007b16a8009515c0008411e07b17308297187b17408297107b172882960882977b1738828718828910828a0882887b1798007b1990007b1a88007b1880009517609518800033002a012871e9502252016c283300540133024628e228502256018124330058013302400128342850225a01f02452073f50225c01b024c9c602d8c606d84a0a821c38c99c0cc9ac0cc96c0cc9b707c98707c90306d4c707d42608d47808d42707988820977720d4870751070a0050205e01060d6407646850206001f2ea837883693307330062010a0f3302640128f22350226401ef2332006416828a7b6a30828a087b6a28828a107b6a208288187b6818829a829808829b108299187b67387b69787b6b707b68689568607b6a60330750206801b2e78267187b67588267207b67508267287b67483307209568408269307b694050206a018ee7390868000256183f0b200368000240019517e08479e07b693064913307700002837783993308400a0b826a3082a71882a81082a90882aa6f776f886f996faa826b387bba187bb9107bb8087bb750226c014e2632007b17208297187b17288297107b171082960882977b1730828718828910828a0882887b17787b19707b1a687b186095174095186050207001f1e78217407b17388217487b17188217507b17088218587b18821b3098b93d976c03d49c0398663d821a1097a903d4690298a93d821a2897aa03d4a90997bc037b1c288e3a88cb000185b601db3a068e9b8e2adb9b0ad49209db9a0683c980502072016a287b17108217308a79038217388218185020740155287b17308218288d8980008217088218502076016628821830d4870782192888988000821a10da8a07821838da98078477ff00946782182033094918104918184918087b875022780150253200821aa0008217a8008218b0008219b80049111849111049110849017b19387b18307b172895174095182064197b1a2033007c0133026e01289824821750821858821940821a487b67107b68187b697b6a08955120ff8210d8008215d0008216c8009511e0003200330080010a123302820128eb2650228201e8265207f10050228401c92550208601b6f6502288010c2733008a01951120ff7b10d8007b15d0007b16c8009515e0008411f08289828a08828b1082881864767b18787b1b707b1a687b19604921980049219000492188009517a000951880009519604921800033007a013302660128e8238217e0007b17388217e8007b17308217f0007b17288217f8007b17209517a00033008c0133024628972550228e013621330090013302fe0028e92450229201a52152073f502294016521c9c602d8c606d84a0a821c38c99c0cc9ac0cc96c0cc9b707c98707c90306d4c707d42608d47808d42707988820977720d4870751070a0050209601bb096407646850209801a7e783788369330733009a010a0f33029c0128a32150229c01a0215209549511807b10787b15707b1668951580008411e06476838883174033009e010a043302a0012805255022a00102255020a201d8ec8217087b67188217107b67108217187b670882177b675022a4019721320000828b829608828008829395ba1f7b1b58d8ba02c8200c7b1340d83a03d36c0a7b1648d86c0bdaa30b828410d80c0ada220a829218828318829610c84a0ad84a08c83808d32809d92808d86a0cda9c08d36a0ad4a909db980b510b0a017b12307b16387b1718821758d447077b1320d43008d487079877207b1428d44808978820d487075207e50064068118588317600a04018217788218708213687b1750d48707883a01947a510abc00821960821758957b20d87b07c876007b1b10c89b0b7b1958d89b02c8030cc82c0cd33c09d83c0ada920ad86009da7709821728c89704d87406821720c86707821648d36c09d8c60c821640d8b60bdb9c0bc84809d8890c8216507b1748c87606c86c0cc89a0ad89a09c8c909821630d3690cd89602821938d8a906dbc206d3a909d4c909db960b520b318219188217587b97208217107b977b93287b90087b98307b94108217507b97388217487b97185022a801052232005020aa01db07009511a0fc951a00037ba0587ba5507ba648951560038411e0829608828408829c8280829210d3460bd8460ad80c03dab30a7b16b800c9460bc93b0b7b1ca800c90c0c88cca00085cc018283108eb6dbb60c829b18828618c93208c9a809d8a8087b12b000d8320a7b1ba000c96b0bc9ab0bc98b0b8fb88e9adbb80ad4b909db9a0c510ca90364626476951a00027ba0c0007ba4c8007ba3d0009517e0029518c0027ba2d8007b14d8007b10d0007b13c8007b12c0003300ac0133029c01281f1f951c000282c7f8007b17900082c7f0007b17800082c7e8007b17980082c7e0007b1788008218d000958720d88708821ad800c88a09d8a90ada880a8218c800c88a0ad88a08821bc000c88b0b7bca707bc9687bc76095178002951860027bcb783300ae013302f20028b41e951c000282c798007b177082c790007b176082c788007b177882c780007b17688217d000957a40d87a078219d800c87908d89809da77098217c800c87909d87907821bc000c8b7077bc7187bc9107bc80895172002951800027bca3300b0013302f200284e1e8217d0009578605022b201d71e52079202951900028297387b17508297307b17408297287b17588297207b17488388831700030a040195170003827218827810827908d4280a889b0194ab510b4e02821a0003821bd000c8ab0bd8ab0a821cd800c89c0cc8ac0cd39c07d89c09da7a098217c800c88707c87909d8790ad887078218c000c88202c82707c87a0a8217a8007b1760018217b8007b1768017b1b80018217b0007b1770018217a0007b1778017b1c88017b1990019517a00195188001951960017b1a98013300b4013302a601281b1f8217d000957880005022b601021e5207bd018217d8017b17208217d0017b178217c8017b17288217c0017b17088217b8017b17308217b0017b17108217a8017b17388217a0017b17188388831720030a040195170003827238827830827928d4280a889b0194ab510b5e01821a2003821bd000c8ab0bd8ab0a821cd800c89c0cc8ac0cd39c07d89c09da7a098217c800c88707c87909d8790ad887078218c000c88202c82707c87a0a8217a8007b17e0008217b8007b17e8007b1b00018217b0007b17f0008217a0007b17f8007b1c08017b19100195172001951800019519e0007b1a18013300b8013302a601282b1e821228018213200182193801821a3001821b5001821c580182174001821848017b6bd0007b6cd8007b67c0007b68c8007b6ab0007b69b8007b63a0007b62a80082177b6790008217207b6798008217087b6780008217287b6788008217107b67708217307b67788217187b67608217387b67688217407b67508217507b67588217487b67408217587b67488217607b67308217707b67388217687b67208217787b6728821780007b6710821790007b6718821788007b67821798007b67089551a0fc951700038270588275508276489511600332005020ba01aa0300951b000282b7d00082b8d80082b9c80082bac000d49808d4a707d487075207eb0138076400024921b8014921b0014921a8017b17a0014921d8014921d0014921c001049517e0019518c0019519a0014921c8015020bc017cfb8217e0017b1798008217e8017b1790008217f0017b1788008217f8017b178000821700027b1778821708027b1770821710027b1768821718027b1760821720027b1758821728027b1750821730027b1748821738027b1740821740027b1738821748027b1730821750027b1728821758027b1720821760027b1718821768027b171082167002821478028213800282128802821c9002821b9802821aa0028219a8028218b0028217b8029510c0007b107b17d8007b18d0007b19c8007b1ac0007b1bf8007b1cf0007b12e8007b13e0007b1418017b1610018217107b1708018217187b1700018217207b1738018217287b1730018217307b1728018217387b1720018217407b1758018217487b1750018217507b1748018217587b1740018217607b1778018217687b1770018217707b1768018217787b176001821780007b179801821788007b179001821790007b178801951780019518600195194001951a2001951b0001951ce000821698007b1680015020be01a20b9517a0003300c00133024628491d8218b8008219b000821aa8008217a000d4a808d4970ad48a0a98aa20d49808978820d4a80851080a005020c2019b015020c4018bdf8378330733093300c6010a0f019511f07b10087b1564755020c801f9da3a08c800033a09c000033a0ab800033a07b000037b58187b59107b5a087b57821008821595111032003300cc010a123302ce0128011e5022ce01fe1d52077f5022d0013b1a5020d2010feb9517c0005020d401a15022d6011d1c3300d80133024628931c5022da0132183300dc013302400128e51b5022de01a11852073f5022e0016118c9c602d8c606d84a0a821c38c99c0cc9ac0cc96c0cc9b707c98707c90306d4c707d42608d47808d42707988820977720d4870751070a005020e201b700640764685020e401a3de8378836933073300e6010a0f013308491718491710491708490732005020ea018cdc7c1733084916184916104916087b675022ec0109183200821980008217880082189000821a98007b1a187b18107b170895172064187b193300f0013302e80128361a821730821838821920821a287b67107b68187b697b6a085022f201641a32005020f60125dc8217108218188219821a087b67107b68187b697b6a085022f8019b1732009511f87b103308700002838833070133093300fa010a0f0182889788207b78183308491710491708490732009511a07b10587b15507b16489515608411f0828b10828a18828c0882867b1a107b1c08d4ac08d4b60ad48a0a98aa207b1b18d4b808978820d4a8087b1752085b829718829810829a0882997b19207b1a287b18309518207b173864675020fc0187da956720d86708821a08c88a09d8a90ada880a821818c88a0ad88a08821b10c8b808821b7bba107bb9087bb77bb8185022fe01d716320000827a10827b18827c088272d4cb0bd4a20cd4bc0c98cc20d4ba0a97aa20d4ca0a520aea00829b18829c108296829708d4c609d4b70ad4a909989920d4ca0a97aa20d4a9095209c6007b17287b1c307b1b38828b18828a108287828908d4a7087b1b207b1910d4b909d498089888207b1a18d4a909979920d498085208900083227b120864687b1750200002aadc837783688219080a03018217c86707d86708821b28821910c8b909c88909d3b90ad8b90bdaa80b821c30821818c8c808c88b0bd88b0ad8c808821c38821620c86c0cc8c808c8a808d4b70ad49808d48a0a98aa20d4b808978820d4a808520820491158491150491148951840491140502002024ed9502204028a163200009511c0fe7b1038017b1530017b162801951540018411f0828b7b1b30828b087b1b28828b107b1b208288187b181882a282a30882ac1082aa1882987b1840829b087b1b488296107b16508299187b19587b17387b19d8007b16d0007b1bc8007b18c0007b1af8007b1cf0007b13e800951700019518e0009519c0007b12e00050200602ddfd821800017b181082160801821a10017b1a821918017b19088217587b17788217507b17708217487b17688217407b17607b1998007b1a90007b1688007b1880008217187b17b8008217207b17b0008217287b17a8009517a00095188000951960821a307b1aa000330008029511807b10787b15707b1668951580008411f028f2fd82184095871fd88708821a4850220a02cc198472e0821bc8ba0ad8ba0b821c58821708c87c0cc8c808c8b808c86909821b10c82b07d8b70bc8b909d3690cd86906dacb06c8a606d8a60ac8a808821a387ba9087ba77ba6107ba8189551c0fe8210380182153001821628019511400132009567207b16b00050220e0215155208e7018216b0009568607b1810d868088219c800c8890a7b1a08d89a09da88098218c000c889097b1918d889088219b800c898087b182049210802492100024921f001609518f0014921f801502010026ed78217087b1778018217107b1770018217707b17a8018217787b17a001821780007b179801821788007b179001821790007b17c801821798007b17c0018217a0007b17b8018217a8007b17b0018217187b1780019517d0019518b00195199001951a7001821b207b1b880150201202bffd95674050221402491452081b018218d001821ad8018216e8017b16a000821ce0017b1ca8008212b000d8280364847b1898008219c80064a8d39a0bd89a0a6480dab30a821bc000c9bc08d8bc0b821cb800c9c60cc9bc0cd8a80bc9bc0cc9a80bc9900a6406c93a0ac924087b1850017b1a58017b1b6001951850017b1c68015020160279d68217a0007b17e8008217a8007b17e0007b16d800821798007b17d0008217287b1708018217307b1700018217387b17f8008217407b17f0008217487b1728018217507b1720018217587b17180195173001951810019519f000951ad000821b687b1b100150201802d0fc821740018218480182193001821a3801821b607bb7107bb8187bb97bba08955190fd951700028270688275608276589511700232000095172033001c02330246283c168217387b17188217307b17108217287b17088216200a0e01821818821908d498087b1618821a10d4a609d48909989920d4a808978820d4980852083c647698772052073483677b1710821718646850201e025fd87a1640837783184033090a0d01811740821810ac870e0a0e0164769877205107040082171864685020200232d883788369330701330022020a0f33022402283111502224022e1132008217821808821918821a10847700ffd467077b19587b1a507b18487b1740951720951840502028026ed650222a0241123200828a18828b10828908d4ba0a889b0194ab510b588288958a1fd88a08c8980884880184aae095a920d8a90ac8a80bd88b08daaa084917187b797b7b087b78108219c0008217c8008218d000821ad8007b1a787b18707b1768951780009518607b196033002e02283fdc50202c02f8da951100ff7b10f8007b15f0007b16e800951500018411f08289828a08828b108288187b17387b18307b18b8007b1b187b1bb0007b1a207b1aa8009517c0009518a0007b19287b19a0002848ff821898008219900082178800821680007b17107b18d48707d49608d478089888207b1908d49707977720d487075207528217287b17408217207b17488217187b17509518408217307b1758646750203002efd382173882187b78188218087b78108218107b78087b76955100ff8210f8008215f0008216e8009511000132000064760a0e015107b5007b16200a0e4911584911507b17409517609518404911485020340214ff8217787b17388217707b17308217687b17288216600a0e019568207b1618d86809821b28c89b0ad8ba0bda990b821930c89b0bd89b09821c38c8c909d4b80cd4a909d49c0c98cc20d4b909979920d4c909520942647698772052073a83677b1710648764685020360218d67a16800083778318800033090a0d0181178000821620821838821930821a28821b18821c10aec70e00330a33093308330b60017b6b7b6a087b69107b6818502238020012320052083450223c0277123a081000023a091800027b18184911087b19106418490150203e02c5d29551d08210288215209511303200004911400f7b18787b1b707b1968951780009518609519407b1a6050204202b3f75022440270133300460233023a0228fa1050224802340f3200828a10828218828c08828bd42c08d4ab09d48909989920d4a808978820d4980852088800951160ff7b1098007b1590007b1688009515a0008411f0647695b7207b1710d8b707c87c087b1808d8c808da7708c8a8087b18d8a807c827077b17184911784911704911602095186049116864b750204a0205d250224c02411333004e0233024002285611821750821858821940821a487b67107b68187b697b6a0850225002ea1032000051070b50225402f41032009517800033005602330246282b12502258025b1152075050225a02b51250205c02a6d150225e02640f5020600223ff821748821258821340821a50821810d3870bd8870c6484821918d89308dab80cc96a0bd86a0a821608c96206502262021b105107040082171864685020640240d483788369330701330066020a0f019511e0f87b1018077b1510077b160807951520078411e082538234188232107b12080182367b1610018230088e468e23db4603821610018866058562018e067b10c000db06027b14c80082160801d44606db63025102120a82c6187b16a00082c6107b16a80082c6087b16b00082cc7b1cb80082bc187b1c6082bc107b1c6882bc087b1c7082bb7b1b7882ab187b1b800082ab107b1b880082ab087b1b900082aa7b1a9800829a18829b10829c0882998286187b1618018286107b1620018286087b16280182887b1830018278107b18d0008278087b18e00082777b17d8007b19e800951600057b69c0004926f8004926f0004926e8004926e0007b1cf0007b6cc8007b1bf8007b6bd000951700069518e0059519c0057b1a00017b6ad800330068023302660128b80e951b000682b982b70882b81082ba18951b00057bba98007bb890007bb788009517a005951880057bb9800033006a023302e80128c90e951b000582b7b00082b8b80082b9a80082baa000d49808d4a707d487075207100950206c0236ce3a089000037b1858013a08a000037b1850013a069800039519000549193849193049192001951740059518200549192833006e023302f40128670e951c000582c7587b173082c7507b173882c7487b17406f67977820821950016f99989920d4890b987720821858016f889789203306700003d4970782c9407b19289888207b17503e077800037b1b583e0b7000037b18483d0880000383677b17200a070151072f087b1640019517000533007002330246287f0f951b000582b71882b91082ba0882b87b1748017b1a3801d4a7077b185801d49808d478089888207b195001d49707977720d487075207e407951900044929f0004929e8004929e000140700000000603c49419518e0047b97f80082165801646750207202a9ce956704d8670982163801c89608d8680ada990a821b5001c8ab09d8b902821a4801c8a202951a00047b1a821a607b1a1804821a687b1a1004821a707b1a0804821a787b1a0004821a80007b1a3804821a88007b1a3004821a90007b1a2804821a98007b1a2004821ac8007b1a5804821a08017b1a5004821ac0007b1a4804821a10017b1a4004821aa0007b1a7804821aa8007b1a7004821ab0007b1a6804821ab8007b1a6004821a307b1a9804821a387b1a9004821a407b1a8804821a287b1a80047b18a8047b17a0047b19b0049517c0049518a00495198004951a6004951b4004951c20047b12b80433007402951190fd7b1068027b1560027b165802951570028411f082528226187b16288226107b16308226087b163882267b164082c6187b164882c6107b165082c6087b165882cc7b1c6882bc187b1c7082bc107b1c7882bc087b1c800082bb7b1b880082ab187b1b900082ab107b1b980082ab087b1ba00082aa7b1aa8008292829308829c108299188286828b087b1bc800828a107b1ac0008288187b18b8007b17607b1828027b1a2002951a00027bab187ba6107ba9487bac407ba33895173002951810027ba23033000c0233023a01283d0b951800048287c8008284d8008282c000828ad000d3670bd8670c82135801d83209dab90c82185001c98a0bd88a0a82184801c98408c9a808d8cb0ac9a8087b181001c9cb0b7b1b0801c96707c997077b17c800c932060a0c01821840018217507b87088217587b878217487a871095190006491938330c491930491928821a0801d4a60782181001821bc800d4b808d48707987720d4a808978820d4870749192052075205646982165801646764987b19c0005020760218cf7b17100164673308502078020acf9518000648184049187849187049186849186082184001978820988920140800000000180000007b190801d489029518200697882098882095196006979920d4890a82181001978820988820821bc00097bb20d48b0b97772098772095184006978820d4780c3308ff3309ff64270a02015207c2040a0e951900034929d8004929d0004929c8004929c000821750017b97f000821738017b97e800821758017b97e0009517e0039518c003821648017b96f80050207a0240d2951a00037ba69800821850017ba89000821738017ba78800821958017ba980007ba6b8007ba8b0007ba7a8009517a003951880037ba9a00050207c02ffd982170001951a00037ba7388217f8007ba7308217f0007ba7288217e8007ba720330b491a58491a50491a48951760039518400395192003491a4033007e0233026601287e09951c000382c96082c76882c87082ca78951600024926f8004926f0004926e8004926e000017bca187bc8107bc708951700039518e0027bc9330080029511807b10787b15707b1668951580008411e08282108283828b18828808827c18827910827a0882777b1c387b19307b1a287b1720d4b808d42307d487078e76641795182033002602284ecb82162064670a8318800664670a0101951b000682b7980082b8800082b9900082ba8800821c1801d3c70bd8c70682172001d8790cdbb60c82162801d36a02d86a0a82163001d86808db2a08d39707d4b707db7c08520874039517c0023300820233024628690a951800028287d8007b1758018286d0008287c8007b1750018287c0007b1748010a0c017b1738018217e0006f779778208219d0006f99989920d498088219d8006f99979a20987720d4a707821a40017ba7089899207aa910821748017ba88218580182195001d48909d46708d49808d46909988820979920d4890982181801951a00067ba8b800821820017ba8b000821828017ba8a800821830017ba8a0005209630233085020840235cc64784821c006821938018e97fc089a79951a00067ba9f8007ba9f0007ba9e8007ba9e00097772382190801d497079519a006979920989920951ae00697aa20330c700002d49a0a978820988b2097cc2098cc209518c006978820d48c0c3308ff3309ff0a028876019517a0023300860233023202286e079518000249289800492890007b8680009517800249288800330088023302520228f7089517600233008a02330246281609951b000282b67882b8707b18580182b9687b19500182ba607b1a4801821718017bb718821720017bb710821728017bb708821730017bb77bb6387bb8307bb9289517400295182002951900027bba2033008c0233024001281f0882195001821448017b164001d4690782165801d46408d47808988820d46707977720d487075207300195180002828748828258828340828a50d3970bd8970cd84308dab80cc96a0bc9cb00d8cb0bd86a0a821c4001c9c20c50228e022d075207f7008217d0009777209877208219e8007b19a0014921d8018219d8007b19c0018219f0007b19a8018219e0007b19c8013a092000023a0a2800023a0b3000023a0c3800027b19f8017b1af0017b1be8017b1ce0018219f8007b19b001821900017b19b8019519e001951ac001951ba0017b17d001644733009002951120ff7b10d8007b15d0007b16c8009515e0008411e082bc7b1c4082bc087b1c4882bc107b1c5082bb187b1b5833020e82ab7b1b1882ab087b1b2082ab107b1b2882aa187b1a308296829a087b1a829a107b1a088299187b19107b183833001028f2c99551e0f8951700078270188275108276089511200732000050209202e1eb3300940233021a02286d08492170014921680149216001140700000000ecaf7367951860017b17780133073300960228bbc6951900054919704919684919601407000000006cc01b68951860057b97783307330096022894c6492190014921880149218001140700000000b878d6f4951880017b17980133075020960271c63308043307502098024dc9837833070133090433009a020a0f019511a0fe7b1058017b1550017b164801951560018411e0330670000383670a0638078000037b17183a077800037b17103a077000037b172049213801492130014921280149212001831720010a12821720017b1758821728017b1750821730017b1748821738017b17389517000133009c02330246284f0682161801821710017b1740821808017b1830821a00017b1a288219387b19b8008219487b19b0008219507b19a8008219587b19a0007b16d8007b17d0007b18c8009517e0009518c0009519a0007b1ac00033009e02330240012856058219308214287b1658d46907821640d46408d47808988820d46707977720d487075207b9008217e8008212f8008213e000821af000d3970bd8970cd84308dab80cc96a0bc9cb00d8cb0bd86a0a821c58c9c20c5022a0026904520781008217106f79979720821a186faa98aa20d47a028217206f7a97ab20989920d4b90998aa204911783a0b4000023a0c4800023a065000023a075800027b1b98007b1c90007b1688007b1780007b1a707b196895198000951a607b126064473300a2023302082856039551a0fe8210580182155001821648019511600132000033075020a402bcc73307015020a602b3c79511a07b10587b15507b16489515608411f08289828a08828b1082881864767b18187b1b107b1a0895172064187b198289828218828b08828810959c1fd89c09c89b0ad8ba0bda990bc88b0bd88b08c8280884cce07b7c7b7a087b7b107b78183302a802821730821838821920821a287b67107b68187b697b6a089551a082105882155082164895116032003200828918828a10828b0882887b79187b7a107b7b087b7832028217b8007b17188216b0008218a8007b1810821aa0007b1a088219207b19588219287b19508219307b19488219387b19407b17787b16707b1868951780009518609519407b1a603202646482178800821898007b183882138000821a9000d3b706d8b70cd80308da680cc94a0632029551a08210588215508216489511603202821918821b10821008d49b07d46008d47808988820d46707977720d487073202956720d86708821ac88a09d8a90ada880a821808c88a0ad88a08821b10c8b808821b187bb9087bb77bba107bb818955140ff8210b8008215b0008216a8009511c0003202828910828a18828b088288d4ba0ad4980bd4ab0b98bb20d4a909979920d4b90932028217108218188219821a087b67107b68187b697b6a089551c08210388215308216289511403202955180821078821570821668951180003202d86708821ac800c88a09d8a90ada880a8218c000c88a0ad88a08821bb800c8b808d4a70bd49808d48b0b98bb20d4a808978820d4b8083202d87807821ad800c87a09d8a90ada770a8217c800c87a0ad87a07821bc000c8b707d4a80bd49707d47b0b98bb20d4a707977720d4b7073202821818958704d88708821a10c88a09d8a90ada880ac86a0ad86a08821b08c88b0b7b19287b17207b1a309517409518207b1b38320238076400024921f8004921f0004921e8007b17e00049211801492110014921000104951700019518e0004921080132029511a0fe7b1058017b1550017b164801951560018411e049213801492130014921280149212001831720013202828a10828b18828c088289d4cb0bd4a908d4b808988820d4ba0a97aa20d4a8083202827810827918827a088277d4a909d4870ad49a0a98aa20d49808978820d4a8083202951160ff7b1098007b1590007b1688009515a0008411e03202c9a606d8cb0ac9a606c9cb0bc94707c98707c99308d467076486d4b808d47808d4b707988820977720d4870732029511a07b10587b15507b16489515608411e06476828718828910828a0882887b17387b19307b1a287b182064179518203202955160ff8210980082159000821688009511a0003202955140ff8210b8008215b0008216a8009511c0003202c9ac0cc9bc0cc99707c98707c94308d4c707d4080ad47a0ad4070798aa20977720d4a7073202951140ff7b10b8007b15b0007b16a8009515c0008411f0828a828908828b108288187b171849115849115049114832029511d07b10287b15209515308411f03202821998008216900082178800821880007b17107b1908d497077b1818d46808d47808988820d46707977720d4870732029511807b10787b15707b1668951580008411f07b1710828732028217c0007b17388217c8007b17308217d0007b17288217d8007b17209517a000320238076400024921180149211001492108017b17000149213801492130014921200104951740019518200195190001492128013202951140ff7b10b8007b15b0007b16a8009515c0008411f0827810827918827a088277d4a909d48707d4970732029511c07b10387b15307b16289515408411f06476641732028218407b188217487b17188219507b1910821a587b1a087b1a387b19307b17289517207b18203202951160fe7b1098017b1590017b1688019515a0018411e04921780149217001492168014921600183176001320282168000821988007b19821890007b1808821798007b17107b17387b18307b19289517207b16203202491170491168491160140700000000a079c3089518607b17788217183202821770018218780182196801821a6001d49808d4a707d4870732028217087b17288217107b172082177b17309517409518208219187b19383202821940018217480182185001821a58017b1ad8007b18d0007b17c8009517e0009518c0007b19c00032029511a07b10587b15507b16489515608411e03202c88a09d8a90ada880a821850c88a0ad88a083202821730018218380182192801821a2001d49808d4a707d487073202849a40520a195109148d9a40cfa80ad09808d09707d4a707320032009597c0d0780733083200849a40520a195109148d9a40d0a70acf9707cf9808d4a808320032009598c0cf870833073200490a21a11a4292d210a1925429a42449922449922449922449922449922449922449922449922449922449922449aa9294529294942454a5242549922449922449922449922449922449922449922449499294a4aa24254994a492a42a49a12449494a525595a424294925492549929224a95029a5244929a524a9a45042a9a4a4a4489122458a14295294a488882849128490309426a521249244444422824484888848498808918888888888888888888888884824222252922429492a4992a4888888489224499224c950a12a1112922484101221499224a950a5242491124288942610244890204112492491449a90482222221211115142a85212124249924c124052489212420443499a24492525499224499224499224492525499224499224494292a41011112949921449a248249224499224494892a4420921340920492aa5504a494892444a089124498546444492549224499224494a922449494a49a2442211914812894422491292888888249148244a9224499288888824111149529224499294444444212222124a12111189101191244992440aa55252922449922449920449121111111191244992a42422229a208424805490248d24912408221294a42449121111919224494a92445210442449921234411149902008822449529224093205952812549224494a92244892244910144544248244221191089224492292241189888892249524499224054905218490a49412242529a520495a922449922449499224494492a494a02812441044104412442448902449922449920c2aa8a248509224a94a529292248d888824292549929224499224499294a4942425499288442449898888822425a924952029494a2a0549d29224499224494a922449229224a504459120822088888848494a922491242291482412910411091224499224499224830aaa6892a424499252299224a91424250992484152244992244912a45295242549499224499224499222a9244929489224414994a0244a9224499224a852aa242528922429491295204925a520495a922449922449499224494492a494a028124410442449a424259194888888244952921411918804910411091224499224499224830aaa2812544992a424499214244992244188609242a524a92a490a4a92a42429499220499294244992244991549204499220891424892489529282222292942429114992a444444451248820082222225292922422221211894422918824884890204992244992241954504591204912a94491204892a48296942449922449922449924492244992244a9a24499124499224499224499224499224499224499294244912148c4812492a491249249292248944924a121511111111111189888888884822492491241189484422914824912492489288221209229224498a4692a48848224912491249222222222222222222114144a248241289448a4692a4884822491249124922222222222222222211111111111111114522914892244992244992248944a248449228181111492244444484888820222222221289442291482412894422918888888888282222222222914824128944229148241289888888888888882022898848922419045534a9208410929452140912041182488288040992244992244992410555b42415549282222292a422922449090a929294a0144ad192924a92244949922449495292a4204992244949099aa42449124949922491242949922449940a2a2d49922449922449922449922441d08888484992a4242549924444444444441089289224491211914824229288248924498294244992244992242511115122884812491249228908114122914844444444444424222212418288888888145152228924494a22222288888888442291482412111189202222498948124d244992a449922449525252905293b4640a2a5124a82491244982a024492949922449494444924822414444a42449241211894444a4244992244992a42025498a8888d6484992044992a44992244992244952522a88a246922459654982128490a4822469248924411091a02425499288888894244952922492822022499294a0098a48820441102449929224499029a8442322222551a412499188241289449124494924124592128944914814111111111111111111899244444444442222224904214284482222118924494a94244a4892848484d2888824921491481249222222808828482249249128914824222222222222222222222222128944222222222222222222254952922429499228128944519212894422224912918844444412492491249148228d242591924844922489a222880a22491249009148228924922492a446111111111111111144444444444444041189442225898844249224222224892892249292242549924a248d1a11119144124924492222898888886844899228492489229224494444444444411151444424124924244922494a442422222222114924914844229128494424221191489224224992244922414412111111112184101111111111514444444a9224294992949224494492681091880820a248240920522422028828484149342222122a24242422228a442291882422914822914844444444449224499244444492244912444a4a5292248410222292488a2422225a902049929294245592244992942492242949924a52928a4424922449922492544422922425494a9224494a4a9224494a2222a224254992929294244949122592441249922425924412499224254992244992a41011111122a2888848444494a4244952929224491111919224494a92a424494a5292942222a2888828499224498a88889424494a9214119124499294249154241289442122222244441411114952929224a9529224499222222211115144914892a424012429222249495292a4888888888892242949922222929424495249254992545200","linkReferences":{}},"methodIdentifiers":{"executeTransfer(address,uint256,uint256,bytes,bytes)":"88f665a4","isNonceUsed(uint256)":"5d00bb12","ownerCommitment()":"91ee7961","usedNonces(uint256)":"6717e41c","vKey()":"625baeab","verifier()":"2b7ac3f3"},"id":18}